:040000003EEF00F0DF
:100008004882FACF10F0FBCF11F0E1CF12F0E2CF27
:1000180013F0D9CF14F0DACF15F0F3CF16F0F4CFF0
:1000280017F0F2AC1AEF00F01CEF00F02CEF00F024
:100038009DA021EF00F023EF00F02CEF00F09EA030
:1000480028EF00F02AEF00F02CEF00F0BAEC0CF0EB
:1000580017C0F4FF16C0F3FF15C0DAFF14C0D9FFAC
:1000680013C0E2FF12C0E1FF11C0FBFF10C0FAFF8E
:08007800489211005CEF0BF04F
:10100000000040010000000E0001CE6FCE51220D05
:10101000EF0EF324D96E000EF420DA6EDF50D8A460
:1010200014EF08F016EF08F018EF08F021EF08F0C1
:10103000CE2B070ECE651FEF08F021EF08F006EF6C
:1010400008F0080ECE19D8A428EF08F02AEF08F00F
:101050002CEF08F09FEF08F0CE51220DCF0EF324B5
:101060001E6E000EF4201F6ECE51220DF00EF324E2
:10107000D96E000EF420DA6EDF50206E56EC0DF0C3
:10108000070E75EC0DF00001CD6FCDBB4AEF08F0F7
:101090004CEF08F058EF08F0CDA951EF08F053EFEE
:1010A00008F055EF08F058EF08F000D040EF08F0D6
:1010B000700E196E070E89EC0AF00001CDA963EFDE
:1010C00008F065EF08F069EF08F029EC0CF09FEFED
:1010D00008F0CE51220DEF0EF324D96E000EF4204D
:1010E000DA6E010EDF6ECDAD78EF08F07AEF08F022
:1010F0009FEF08F066EC0DF00001CC6F600E1E6EE5
:10110000000E1F6ECCC020F045EC0DF0600E186E86
:10111000000E196EC9EC0AF00009D8A492EF08F08D
:1011200094EF08F096EF08F09FEF08F0600E0001D2
:10113000A56F000EA66FCCC0A7F0FEEC09F0120060
:10114000A3EC0DF03E0E196E000E1A6E050E1B6E0E
:10115000100E9AEC0CF03E0E196E000E1A6E050E73
:101160001B6E0A0E9AEC0CF07A0E196E000E89ECCA
:101170000AF0010E196E010E89EC0AF0010E196ECB
:10118000020E89EC0AF0030E196E030E89EC0AF0C8
:10119000DF0E196E040E89EC0AF0730E196E050E3F
:1011A00089EC0AF00E0E196E060E89EC0AF0060E96
:1011B000196E1D0E89EC0AF0010E196E1C0E89ECD9
:1011C0000AF000D0000E2D6E020E316E000E1E6E63
:1011D0001E50220DEF0EF324D96E000EF420DA6EAD
:1011E000010EDF6E1E50220DF00EF324D96E000E9C
:1011F000F420DA6E000EDF6E1E2A070E1E6403EF67
:1012000009F005EF09F0E8EF08F01200196EC6BA10
:101210000CEF09F00EEF09F05DEF09F01950040D25
:10122000010EF326000EF422010EF324F66E100ECA
:10123000F420F76EF86A000EF8220800F5CFC7FF19
:101240001950040D010EF324F66E100EF420F76E03
:10125000F86A000EF8220800F5CFC6FF000EC56E32
:101260001950040D020EF326000EF422010EF32491
:10127000F66E100EF420F76EF86A000EF8220800E1
:10128000F5CFC8FF1950040D030EF326000EF4220B
:10129000010EF324F66E100EF420F76EF86A000EBD
:1012A000F8220800F5CF18F0184618461846945052
:1012B0001818F70B1818946EC68A1200000E266EC6
:1012C0002650220DEF0EF324D96E000EF420DA6EB4
:1012D000DF50D8B46EEF09F070EF09F072EF09F04B
:1012E0007BEF09F0262A070E266479EF09F07BEFE1
:1012F00009F060EF09F0080E2618D8A482EF09F073
:1013000084EF09F087EF09F0000EADEF09F02650E9
:10131000220DEF0EF324D96E000EF420DA6E000ECB
:10132000DF6E2650220DF00EF324D96E000EF4204D
:10133000DA6E25C0DFFF2650220DCF0EF324186E83
:10134000000EF420196E23C01AF024C01BF025C033
:101350001CF01D6AD9EC0BF0010E1200000E0F6E8E
:101360000F50220DEF0EF324D96E000EF420DA6E2A
:10137000DF50D8B4BEEF09F0C0EF09F0C2EF09F0BA
:10138000CBEF09F00F2A070E0F64C9EF09F0CBEF7E
:1013900009F0B0EF09F0080E0F18D8A4D2EF09F049
:1013A000D4EF09F0D7EF09F0000EFDEF09F00F5070
:1013B000220DEF0EF324D96E000EF420DA6E000E2B
:1013C000DF6E0F50220DF00EF324D96E000EF420C4
:1013D000DA6E0EC0DFFF0F50220DCF0EF324016E28
:1013E000000EF420026E0CC003F00DC004F00EC01D
:1013F00005F0066A01EC0CF0010E1200A5C0D9FF41
:10140000A6C0DAFFDF500001CB6F2FEF0AF020EE0D
:1014100004F0A551D926A651DA22DF50CA6FAA0ED0
:10142000186E000E196E000E1A6EA5C01BF0A6C035
:101430001CF0050E1D6EA751FB0F1E6E87EC0BF006
:10144000AA0E0001A06F000EA16FCA5130EC0BF084
:1014500044EF0AF0040EFDEC0AF044EF0AF0CB5121
:10146000A86FA96BA951000AD8B439EF0AF02AEF86
:101470000AF0A851030AD8B444EF0AF0130AD8B40A
:1014800007EF0AF02AEF0AF01200055006100710C5
:101490000810D8B44EEF0AF050EF0AF080EF0AF0CF
:1014A000010E096E5AEF0AF0D89005360636073657
:1014B0000836092A08AE5FEF0AF061EF0AF054EF30
:1014C0000AF00550015C06500258075003580850B6
:1014D0000458D8A06EEF0AF070EF0AF078EF0AF027
:1014E0000550015E0650025A0750035A0850045A2C
:1014F000D8900832073206320532092E61EF0AF021
:1015000001C001F002C002F003C003F004C004F007
:1015100012001A6E8B92200E1A6091EF0AF093EF70
:101520000AF09DEF0AF01A501F0B200982EC0DF013
:10153000195082EC0DF0C6EF0AF01A5082EC0DF053
:10154000E10E1A18D8B4A7EF0AF0A9EF0AF0C6EF17
:101550000AF0E20E1A18D8B4B0EF0AF0B2EF0AF0AF
:10156000C6EF0AF0E30E1A18D8B4B9EF0AF0BBEFD1
:101570000AF0C6EF0AF01A28D8B4C1EF0AF0C3EF98
:101580000AF0C6EF0AF0195082EC0DF000D08B8201
:101590001200000E1F6E000E1E6E1E5018241A6ED2
:1015A0001F5019201B6E010E1A24D96E000E1B202D
:1015B000DA6E2E0E1E24E16E000E1F20E26EDE504B
:1015C000E618D8B4E6EF0AF0E8EF0AF0EBEF0AF01D
:1015D000000EFCEF0AF01E4A1F2A1FBEF9EF0AF0A8
:1015E0001F5009E1030E1E5CD8A0F9EF0AF0FBEFD3
:1015F0000AF0CDEF0AF0010E1200276E000E286EE1
:10160000010E0001806F800E186E000E196E010E23
:101610001A6E2E0E1B6E000E1C6E000E1D6E030E3B
:101620001E6E87EC0BF0030E2826282A800E282435
:10163000D96EDA6A000EDA22000EDF6E282A800EDA
:101640002824D96EDA6A000EDA2227C0DFFF800E66
:10165000236E000E246E2828256E5EEC09F0120021
:101660000001A46F49EF0BF08992A0C0D9FFA1C07F
:10167000DAFFDF50D8B43FEF0BF041EF0BF05BEF38
:101680000BF089825BEF0BF0040EFDEC0AF05BEFD0
:101690000BF00001A451A26FA36BA351000AD8B4B0
:1016A00054EF0BF044EF0BF0A251130AD8B434EF0F
:1016B0000BF044EF0BF012006E0EF66E1B0EF76E81
:1016C000000EF86E00EE3EF010EE06F00900F5CFC9
:1016D000EEFFE550E150FAE100EECFF011EE10F030
:1016E000EE6AE550E150FCE1E250FAE100EE60F014
:1016F000400EEE6AE806FDE100EE29F0150EEE6AF6
:10170000E806FDE148904892000132EF0DF0000E2E
:10171000236EA6EF0BF023501B241F6E000E1C201F
:10172000206E1D501F24D96E000E2020DA6E23502B
:101730001824216E000E1920226E1A502124E16E09
:10174000000E2220E26EDFCFE7FF232A1E50235C2B
:10175000D8A0ADEF0BF0AFEF0BF08BEF0BF012005A
:10176000000E0C6ECFEF0BF00C500424086E000E30
:101770000520096E06500824D96E000E0920DA6E85
:101780000C5001240A6E000E02200B6E03500A2436
:10179000E16E000E0B20E26EDFCFE7FF0C2A075050
:1017A0000C5CD8A0D6EF0BF0D8EF0BF0B4EF0BF039
:1017B00012001AC021F01BC022F018C01FF019C07F
:1017C00020F0F3EF0BF021C0D9FF22C0DAFFDF5089
:1017D0001E6E214A222A1FC0D9FF20C0DAFF1EC078
:1017E000DFFF1F4A202A1C06D8A01D061C2806E180
:1017F0001D28D8A4FEEF0BF000EF0CF0E3EF0BF088
:10180000120003C009F004C00AF001C007F002C0D2
:1018100008F01BEF0CF009C0D9FF0AC0DAFFDF5057
:101820000B6E094A0A2A07C0D9FF08C0DAFF0BC0AD
:10183000DFFF074A082A0506D8A00606052806E1A4
:101840000628D8A426EF0CF028EF0CF00BEF0CF0D4
:1018500012008B92700E196E070E89EC0AF0040EBE
:101860001B6E3E0EE82EFED71B2EFCD78B828B9272
:10187000E10E82EC0DF0040E1B6E3E0EE82EFED73C
:101880001B2EFCD78B828B92E20E82EC0DF0040EA5
:101890001B6E3E0EE82EFED71B2EFCD78B8212004D
:1018A0001C6E8B921C5082EC0DF0000E1D6E64EFCE
:1018B0000CF0FF0E82EC0DF019C0D9FF1AC0DAFF50
:1018C000DF6E194A1A2A1D2A1B501D5CD8A06BEF27
:1018D0000CF06DEF0CF059EF0CF019C0D9FF1AC0E5
:1018E000DAFF000EDF6E8B821200010E2926000E39
:1018F0002A222B222C2229C001F02AC002F02BC060
:1019000003F02CC004F03150056E066A076A086ABD
:1019100045EC0AF00150021003100410D8B493EF04
:101920000CF095EF0CF097EF0CF099EF0CF0D7EC72
:101930000CF012001C6E8B921C50200982EC0DF0F2
:10194000000E1D6EAFEF0CF019C0D9FF1AC0DAFF00
:10195000DF5082EC0DF0194A1A2A00D01D2A1B50C4
:101960001D5CD8A0B6EF0CF0B8EF0CF0A4EF0CF0B3
:101970008B8212009E9046C001F047C002F01EEC20
:101980000DF044504510D8B4C8EF0CF0CAEF0CF07D
:10199000D6EF0CF002D8D6EF0CF00500FA6E4450EA
:1019A000FD6E4550FE6EFF6AFA5012001200020EE4
:1019B0000001806F800E016E000E026E010E036E3C
:1019C0002E0E046E000E056E000E066E030E076EE0
:1019D000B0EC0BF0800E0C6E000E0D6E040E0E6E51
:1019E000AEEC09F01200000E896E000E8A6E000E39
:1019F0008B6EFD0E926E9368D10E946EC40E0F0125
:101A00003A6F3F0E396F2D0E386F000E616EF18EFA
:101A10001200000ECC6E0B0ECF6EDC0ECE6ECECF53
:101A200046F0CFCF47F09E909D80780E186E1B0E2B
:101A3000196EB2EC0DF0210ECD6E1200CDA423EF85
:101A40000DF025EF0DF02DEF0DF0CD900250CF6E83
:101A500001C0CEFFCD8031EF0DF00250CF6E01C03E
:101A6000CEFF12008FEC0DF0F28EF28CEA0E186EA3
:101A7000180E196EB2EC0DF0A0EC08F003EC08F0B3
:101A800000F03EEF0DF03EEF00F01EC019F01FC059
:101A90001AF020C01BF0610E50EC0CF0700E196EA5
:101AA000070E89EC0AF029EC0CF012001EC019F0A8
:101AB0001FC01AF020C01BF0A00E9AEC0CF08B8413
:101AC000530EE82EFED700F08B9412008B92600E1E
:101AD00082EC0DF0FF0E82EC0DF0196E530EE82E25
:101AE000FED700F08B8219501200196E8B9219509C
:101AF0001F0B82EC0DF0FF0E82EC0DF01A6E8B8244
:101B00001A501200186E18C0C9FF9EA68AEF0DF079
:101B10008CEF0DF085EF0DF09E96C9501200BAECD7
:101B20000DF09AEC0DF0F3EC0CF0ABEC0DF009ECD1
:101B30000DF01200400EC76E000EC66E010EC86E8C
:101B40009496C69A1200000E06EC09F094929494B2
:101B50008B828B941200300ED36E040ED26E000E68
:101B60009B6E120018C044F019C045F01200686561
:0A1B70006C6C6F00D09E1200120092
:020000040020DA
:08000000FFFFFFFFFFFFFFFF00
:020000040030CA
:0E000000FF281F3CFFBF85FF0FC00FE00F4021
:00000001FF
