:040000003EEF00F0DF
:100008004782FACF10F0FBCF11F0E1CF12F0E2CF28
:1000180013F0D9CF14F0DACF15F0F3CF16F0F4CFF0
:1000280017F0F2AC1AEF00F01CEF00F02CEF00F024
:100038009DA021EF00F023EF00F02CEF00F09EA030
:1000480028EF00F02AEF00F02CEF00F0DEEC0DF0C6
:1000580017C0F4FF16C0F3FF15C0DAFF14C0D9FFAC
:1000680013C0E2FF12C0E1FF11C0FBFF10C0FAFF8E
:080078004792110080EF0CF02B
:10100000000040010000000E0001DA6FDA51220DED
:10101000FB0EF324D96E000EF420DA6EDF50D8A454
:1010200014EF08F016EF08F018EF08F021EF08F0C1
:10103000DA2B070EDA651FEF08F021EF08F006EF54
:1010400008F0080EDA19D8A428EF08F02AEF08F003
:101050002CEF08F0A1EF08F0DA51220DDB0EF3249B
:101060001E6E000EF4201F6EDA51220DFC0EF324CA
:10107000D96E000EF420DA6EDF50206E7AEC0EF09E
:10108000070EA8EC0EF00001D96FD9BB4AEF08F0AB
:101090004CEF08F053EF08F0D9A951EF08F053EFE7
:1010A00008F056EF08F089925AEF08F000D08982D4
:1010B00040EF08F0700E196E070EA4EC0BF0000163
:1010C000D9A965EF08F067EF08F06BEF08F04DEC79
:1010D0000DF0A1EF08F0DA51220DFB0EF324D96ECA
:1010E000000EF420DA6E010EDF6ED9AD7AEF08F053
:1010F0007CEF08F0A1EF08F08AEC0EF00001D86F49
:10110000600E1E6E000E1F6ED8C020F069EC0EF04F
:10111000600E186E000E196E19EC0CF00009D8A4C0
:1011200094EF08F096EF08F098EF08F0A1EF08F0C0
:10113000600E0001B16F000EB26FD8C0B3F0A2EC28
:1011400008F01200B1C0D9FFB2C0DAFFDF500001D1
:10115000D76F21EF09F020EE04F0B151D926B2513A
:10116000DA22DF50D66FB60E186E000E196E000E22
:101170001A6EB1C01BF0B2C01CF0050E1D6EB3514B
:10118000FB0F1E6EABEC0CF0B60E2C6E000E2D6E2F
:101190000001D65129EC0AF03AEF09F020EE04F0F4
:1011A000B151D926B251DA22DF50A56FA60E186EC2
:1011B000000E196E000E1A6EB1C01BF0B2C01CF00A
:1011C000050E1D6E050E1E6EABEC0CF0AB0E186E10
:1011D000000E196E000E1A6EB1C01BF0B2C01CF0EA
:1011E0000A0E1D6E050E1E6EABEC0CF0000120EE1B
:1011F0000FF0B151D926B251DA22DF50B06F3AEF79
:1012000009F0A10E186E000E196E000E1A6EB1C014
:101210001BF0B2C01CF0040E1D6E030E1E6EABEC74
:101220000CF0000120EE07F0B151D926B251DA22BC
:10123000DF50A46F3AEF09F0040E4DEC0CF03AEFDA
:1012400009F0D751B46FB56BB551000AD8B42BEF84
:1012500009F01CEF09F0B451030AD8B4CEEF08F03E
:10126000070AD8B401EF09F0140AD8B4ABEF08F0BC
:101270001CEF09F01200D6EC0EF0340E196E000EC1
:101280001A6E050E1B6E100EBEEC0DF0340E196EAC
:10129000000E1A6E050E1B6E0A0EBEEC0DF07A0ED5
:1012A000196E000EA4EC0BF0010E196E010EA4ECE9
:1012B0000BF0010E196E020EA4EC0BF0030E196E6A
:1012C000030EA4EC0BF0DF0E196E040EA4EC0BF071
:1012D000730E196E050EA4EC0BF00E0E196E060EB1
:1012E000A4EC0BF0060E196E1D0EA4EC0BF0010E13
:1012F000196E1C0EA4EC0BF000D0000E0001A06FC4
:1013000033C0A4F0730EA56FA60E186E000E196EF2
:10131000340E1A6E000E1B6E000E1D6E050E1C6E36
:10132000FDEC0CF0AB0E186E000E196E340E1A6E3A
:10133000000E1B6E000E1D6E050E1C6EFDEC0CF0FB
:10134000A10E186E000E196E3A0E1A6E000E1B6E6C
:10135000000E1D6E030E1C6EFDEC0CF00A0E00015B
:10136000B06F000E236E2350220DFB0EF324D96EB6
:10137000000EF420DA6E010EDF6E2350220DFC0EFB
:10138000F324D96E000EF420DA6E000EDF6E232AED
:10139000070E2364CEEF09F0D0EF09F0B3EF09F0A8
:1013A0001200196EC6BAD7EF09F0D9EF09F028EF8D
:1013B0000AF01950040D010EF326000EF422010E5E
:1013C000F324F66E100EF420F76EF86A000EF82281
:1013D0000800F5CFC7FF1950040D010EF324F66E77
:1013E000100EF420F76EF86A000EF8220800F5CF10
:1013F000C6FF000EC56E1950040D020EF326000E36
:10140000F422010EF324F66E100EF420F76EF86A43
:10141000000EF8220800F5CFC8FF1950040D030E86
:10142000F326000EF422010EF324F66E100EF420C3
:10143000F76EF86A000EF8220800F5CF18F018468B
:101440001846184694501818F70B1818946EC68A48
:101450001200306E000E326E000E316E5DEF0AF03B
:1014600089922CC0D9FF2DC0DAFFDF50D8B43BEFF2
:101470000AF03DEF0AF07AEF0AF089827AEF0AF07B
:10148000E4EC0BF07AEF0AF0310E186E000E196ED4
:1014900099EC0EF0310E276E000E286E020E296EAA
:1014A000020E1BEC0BF07AEF0AF0FF007AEF0AF065
:1014B000040E4DEC0CF07AEF0AF030502E6E2F6ACD
:1014C0002F50000AD8B467EF0AF058EF0AF02E50F8
:1014D000020AD8B444EF0AF0110AD8B430EF0AF087
:1014E000070AD8B455EF0AF0010AD8B440EF0AF061
:1014F00058EF0AF01200000E266E2650220DFB0E49
:10150000F324D96E000EF420DA6EDF50D8B48BEFDE
:101510000AF08DEF0AF08FEF0AF098EF0AF0262A12
:10152000070E266496EF0AF098EF0AF07DEF0AF0B6
:10153000080E2618D8A49FEF0AF0A1EF0AF0A4EF36
:101540000AF0000ECAEF0AF02650220DFB0EF3241B
:10155000D96E000EF420DA6E000EDF6E2650220DDA
:10156000FC0EF324D96E000EF420DA6E25C0DFFFE6
:101570002650220DDB0EF324186E000EF420196E97
:1015800023C01AF024C01BF025C01CF01D6AFDEC1E
:101590000CF0010E1200000E0F6E0F50220DFB0E0C
:1015A000F324D96E000EF420DA6EDF50D8B4DBEFEE
:1015B0000AF0DDEF0AF0DFEF0AF0E8EF0AF00F2A99
:1015C000070E0F64E6EF0AF0E8EF0AF0CDEF0AF03D
:1015D000080E0F18D8A4EFEF0AF0F1EF0AF0F4EFBD
:1015E0000AF0000E1AEF0BF00F50220DFB0EF32441
:1015F000D96E000EF420DA6E000EDF6E0F50220D51
:10160000FC0EF324D96E000EF420DA6E0EC0DFFF5C
:101610000F50220DDB0EF324016E000EF420026E3B
:101620000CC003F00DC004F00EC005F0066A25ECF6
:101630000DF0010E12002A6E000E2B6E010E00013D
:10164000806F800E186E000E196E010E1A6E3A0E23
:101650001B6E000E1C6E000E1D6E030E1E6EABEC9C
:101660000CF0030E2B262B2A800E2B24D96EDA6A5F
:10167000000EDA222AC0DFFF2B2A800E2B24D96E1F
:10168000DA6A000EDA22000EDF6E800E186E000E8F
:10169000196E2B281A6E27C01BF028C01CF0000EF4
:1016A0001D6E29C01EF0ABEC0CF029502B26800ECD
:1016B000236E000E246E2B28256E7BEC0AF01200A0
:1016C0000550061007100810D8B469EF0BF06BEF47
:1016D0000BF09BEF0BF0010E096E75EF0BF0D8903D
:1016E0000536063607360836092A08AE7AEF0BF0BB
:1016F0007CEF0BF06FEF0BF00550015C06500258C9
:101700000750035808500458D8A089EF0BF08BEF0E
:101710000BF093EF0BF00550015E0650025A075094
:10172000035A0850045AD89008320732063205325C
:10173000092E7CEF0BF001C001F002C002F003C0E3
:1017400003F004C004F012001A6E8B92200E1A608F
:10175000ACEF0BF0AEEF0BF0B8EF0BF01A501F0B25
:101760002009B5EC0EF01950B5EC0EF0E1EF0BF0DE
:101770001A50B5EC0EF0E10E1A18D8B4C2EF0BF007
:10178000C4EF0BF0E1EF0BF0E20E1A18D8B4CBEF78
:101790000BF0CDEF0BF0E1EF0BF0E30E1A18D8B41D
:1017A000D4EF0BF0D6EF0BF0E1EF0BF01A28D8B422
:1017B000DCEF0BF0DEEF0BF0E1EF0BF01950B5ECC6
:1017C0000EF000D08B821200010E0001A06FA5C0A8
:1017D00019F0050EA4EC0BF0A60E196E000E1A6E91
:1017E000050E1B6E100EBEEC0DF0A60E196E000E4F
:1017F0001A6E050E1B6E0A0EBEEC0DF00001B0391C
:10180000F00B0F09236E23C019F0040EA4EC0BF0AB
:101810003A0E186E000E196EA10E1A6E000E1B6E97
:10182000000E1D6E030E1C6EFDEC0CF0A4C033F018
:101830001200000E1F6E000E1E6E1E5018241A6E2F
:101840001F5019201B6E010E1A24D96E000E1B208A
:10185000DA6E3A0E1E24E16E000E1F20E26EDE509C
:10186000E618D8B436EF0CF038EF0CF03BEF0CF084
:10187000000E4CEF0CF01E4A1F2A1FBE49EF0CF061
:101880001F5009E1030E1E5CD8A049EF0CF04BEF8E
:101890000CF01DEF0CF0010E1200276E000E286EEA
:1018A000010E0001806F800E186E000E196E010E81
:1018B0001A6E3A0E1B6E000E1C6E000E1D6E030E8D
:1018C0001E6EABEC0CF0030E2826282A800E28246E
:1018D000D96EDA6A000EDA22000EDF6E282A800E38
:1018E0002824D96EDA6A000EDA2227C0DFFF800EC4
:1018F000236E000E246E2828256E7BEC0AF0120061
:10190000CA0EF66E1D0EF76E000EF86E00EE33F086
:1019100010EE0AF00900F5CFEEFFE550E150FAE1D4
:1019200000EEDBF011EE10F0EE6AE550E150FCE164
:10193000E250FAE100EE60F0510EEE6AE806FDE1D9
:10194000426A416A406A3F6A3E6A3D6A47904792EE
:10195000000156EF0EF0000E236ECAEF0CF023507C
:101960001B241F6E000E1C20206E1D501F24D96EDC
:10197000000E2020DA6E23501824216E000E19204C
:10198000226E1A502124E16E000E2220E26EDFCF7B
:10199000E7FF232A1E50235CD8A0D1EF0CF0D3EF31
:1019A0000CF0AFEF0CF01200000E0C6EF3EF0CF029
:1019B0000C500424086E000E0520096E0650082401
:1019C000D96E000E0920DA6E0C5001240A6E000E4A
:1019D00002200B6E03500A24E16E000E0B20E26E13
:1019E000DFCFE7FF0C2A07500C5CD8A0FAEF0CF011
:1019F000FCEF0CF0D8EF0CF012001AC021F01BC065
:101A000022F018C01FF019C020F017EF0DF021C010
:101A1000D9FF22C0DAFFDF501E6E214A222A1FC0E2
:101A2000D9FF20C0DAFF1EC0DFFF1F4A202A1C0694
:101A3000D8A01D061C2806E11D28D8A422EF0DF011
:101A400024EF0DF007EF0DF0120003C009F004C001
:101A50000AF001C007F002C008F03FEF0DF009C026
:101A6000D9FF0AC0DAFFDF500B6E094A0A2A07C005
:101A7000D9FF08C0DAFF0BC0DFFF074A082A0506B6
:101A8000D8A00606052806E10628D8A44AEF0DF0DE
:101A90004CEF0DF02FEF0DF012008B92700E196EBF
:101AA000070EA4EC0BF0040E1B6E3E0EE82EFED7C4
:101AB0001B2EFCD78B828B92E10EB5EC0EF0040E40
:101AC0001B6E3E0EE82EFED71B2EFCD78B828B9210
:101AD000E20EB5EC0EF0040E1B6E3E0EE82EFED7A5
:101AE0001B2EFCD78B8212001C6E8B921C50B5EC07
:101AF0000EF0000E1D6E88EF0DF0FF0EB5EC0EF02F
:101B000019C0D9FF1AC0DAFFDF6E194A1A2A1D2A36
:101B10001B501D5CD8A08FEF0DF091EF0DF07DEF05
:101B20000DF019C0D9FF1AC0DAFF000EDF6E8B82EC
:101B30001200010E3D26000E3E223F2240223DC0F3
:101B400001F03EC002F03FC003F040C004F033504B
:101B5000056E066A076A086A60EC0BF00150021015
:101B600003100410D8B4B7EF0DF0B9EF0DF0BBEFD0
:101B70000DF0BDEF0DF0FBEC0DF012001C6E8B9222
:101B80001C502009B5EC0EF0000E1D6ED3EF0DF0C9
:101B900019C0D9FF1AC0DAFFDF50B5EC0EF0194AB0
:101BA0001A2A00D01D2A1B501D5CD8A0DAEF0DF0B8
:101BB000DCEF0DF0C8EF0DF08B8212009E9045C057
:101BC00001F046C002F042EC0EF043504410D8B48D
:101BD000ECEF0DF0EEEF0DF0FAEF0DF002D8FAEFAA
:101BE0000DF00500FA6E4350FD6E4450FE6EFF6A24
:101BF000FA5012001200020E0001806F800E016E7A
:101C0000000E026E010E036E3A0E046E000E056E9B
:101C1000000E066E030E076ED4EC0CF0800E0C6EF8
:101C2000000E0D6E040E0E6ECBEC0AF01200000ECC
:101C3000896E000E8A6E000E8B6EFD0E926E93689A
:101C4000D10E946EC40E0F013A6F3F0E396F2D0EF8
:101C5000386F000E616EF18E1200000ECC6E0B0E0E
:101C6000CF6EDC0ECE6ECECF45F0CFCF46F09E903D
:101C70009D80E20E186E1D0E196EEAEC0EF0210E1C
:101C8000CD6E1200CDA447EF0EF049EF0EF051EFEC
:101C90000EF0CD900250CF6E01C0CEFFCD8055EF3B
:101CA0000EF00250CF6E01C0CEFF1200C2EC0EF05B
:101CB000F28EF28C320E186E1B0E196EEAEC0EF0DC
:101CC0003BEC09F003EC08F000F062EF0EF03EEFA1
:101CD00000F01EC019F01FC01AF020C01BF0610EEA
:101CE00074EC0DF0700E196E070EA4EC0BF04DECB9
:101CF0000DF012001EC019F01FC01AF020C01BF01A
:101D0000A00EBEEC0DF08B84530EE82EFED700F033
:101D10008B9412008B92600EB5EC0EF0FF0EB5ECBA
:101D20000EF0196E530EE82EFED700F08B8219507C
:101D3000120018C0D9FF19C0DAFF230EDF6E20EEA3
:101D400001F01850D9261950DA22280EDF6E120041
:101D5000196E8B9219501F0BB5EC0EF0FF0EB5ECFF
:101D60000EF01A6E8B821A501200186E18C0C9FF3E
:101D70009EA6BDEF0EF0BFEF0EF0B8EF0EF09E96F0
:101D8000C9501200EFEC0EF0CDEC0EF017EC0EF097
:101D9000DEEC0EF02DEC0EF01200400EC76E000EC1
:101DA000C66E010EC86E9496C69A1200000ED1EC53
:101DB00009F0949294948B828B941200300ED36E1F
:101DC000040ED26E000E9B6E12000168656C6C6F83
:101DD00000FFFFFF18C043F019C044F01200D09E6E
:041DE00012001200DB
:020000040020DA
:08000000FFFFFFFFFFFFFFFF00
:020000040030CA
:0E000000FF281F3CFFBF85FF0FC00FE00F4021
:00000001FF
