:0400000036EF00F0E7
:100008004C82FACF36F0FBCF37F0E1CF38F0E2CFB1
:1000180039F0D9CF3AF0DACF3BF0F2AC16EF00F076
:1000280018EF00F028EF00F09DA01DEF00F01FEF83
:1000380000F028EF00F09EA024EF00F026EF00F07B
:1000480028EF00F0A5EC0AF03BC0DAFF3AC0D9FF70
:1000580039C0E2FF38C0E1FF37C0FBFF36C0FAFF06
:080068004C92110044EF0AF074
:10100000000040010000010E0726000E0822092200
:101010000A2207C02BF008C02CF009C02DF00AC02E
:101020002EF005C02FF006C030F0316A326A0DECA8
:1010300009F02B502C102D102E10D8B422EF08F0F0
:1010400024EF08F026EF08F06BEF08F00B0E2B6E84
:10105000000E2C6EF8EC09F0346E0B0E316E000EA3
:10106000326E34C033F035EC0BF0070E52EC0BF05F
:10107000356E35BA3EEF08F040EF08F047EF08F064
:1010800035A845EF08F047EF08F035EF08F0700E8F
:101090002C6E070E91EC09F035A851EF08F053EFD4
:1010A00008F056EF08F089826BEF08F035AC5BEF83
:1010B00008F05DEF08F06BEF08F0600E316E000E87
:1010C000326E200E336E24EC0BF0600E2B6E000E91
:1010D0002C6E01EC0BF012003D6EC6BA72EF08F0F8
:1010E00074EF08F0C3EF08F03D50040D010EF32635
:1010F000000EF422010EF324F66E100EF420F76EAB
:10110000F86A000EF8220800F5CFC7FF3D50040D25
:10111000010EF324F66E100EF420F76EF86A000E3E
:10112000F8220800F5CFC6FF000EC56E3D50040D35
:10113000020EF326000EF422010EF324F66E100EBA
:10114000F420F76EF86A000EF8220800F5CFC8FF09
:101150003D50040D030EF326000EF422010EF3247D
:10116000F66E100EF420F76EF86A000EF8220800F2
:10117000F5CF3CF03C463C463C4694503C18F70BBF
:101180003C18946EC68A120080EC0BF0420E3D6E45
:10119000000E3E6E050E3F6E100E65EC0AF0420E1C
:1011A0003D6E000E3E6E050E3F6E0A0E65EC0AF0B7
:1011B0000A0E3D6E000E51EC09F0010E3D6E010E5F
:1011C00051EC09F0010E3D6E020E51EC09F0030ED8
:1011D0003D6E030E51EC09F0AA0E3D6E040E51EC6B
:1011E00009F0730E3D6E050E51EC09F00E0E3D6ECA
:1011F000060E51EC09F0060E3D6E1D0E51EC09F085
:10120000010E3D6E1C0E51EC09F000D0000E016E77
:10121000000E066E010E056E12002F5030103110B8
:101220003210D8B416EF09F018EF09F048EF09F0C2
:10123000010E336E22EF09F0D8902F36303631365A
:101240003236332A32AE27EF09F029EF09F01CEFCE
:1012500009F02F502B5C30502C5831502D58325003
:101260002E58D8A036EF09F038EF09F040EF09F01A
:101270002F502B5E30502C5A31502D5A32502E5A4E
:10128000D8903232313230322F32332E29EF09F0FA
:101290002BC02BF02CC02CF02DC02DF02EC02EF02A
:1012A00012003E6E8B92200E3E6059EF09F05BEF0C
:1012B00009F065EF09F03E501F0B200945EC0BF0DB
:1012C0003D5045EC0BF08EEF09F03E5045EC0BF035
:1012D000E10E3E18D8B46FEF09F071EF09F08EEF10
:1012E00009F0E20E3E18D8B478EF09F07AEF09F071
:1012F0008EEF09F0E30E3E18D8B481EF09F083EFCA
:1013000009F08EEF09F03E28D8B489EF09F08BEF91
:1013100009F08EEF09F03D5045EC0BF000D08B82C8
:1013200012002D6E8B92200E2D6099EF09F09BEF2D
:1013300009F0A5EF09F02D501F0B20095FEC0BF011
:101340002C505FEC0BF0CEEF09F02D505FEC0BF062
:10135000E10E2D18D8B4AFEF09F0B1EF09F0CEEFE0
:1013600009F0E20E2D18D8B4B8EF09F0BAEF09F081
:10137000CEEF09F0E30E2D18D8B4C1EF09F0C3EF9A
:1013800009F0CEEF09F02D28D8B4C9EF09F0CBEF62
:1013900009F0CEEF09F02C505FEC0BF000D08B82FF
:1013A00012008B92700E2C6E070E91EC09F0040E59
:1013B0002E6E3E0EE82EFED72E2EFCD78B828B9201
:1013C000E10E5FEC0BF0040E2E6E3E0EE82EFED703
:1013D0002E2EFCD78B828B92E20E5FEC0BF0040E6C
:1013E0002E6E3E0EE82EFED72E2EFCD78B821200DC
:1013F0002BC0D9FF2CC0DAFF020EDF6E000E2F6E5D
:10140000020E2F24D96EDA6A000EDA222F502B2416
:101410002D6E000E2C202E6E010E2D24E16E000E7E
:101420002E20E26EDFCFE7FF2F2A020E2F641BEF84
:101430000AF01DEF0AF000EF0AF0040E12002F6E02
:101440008B922F505FEC0BF0000E306E33EF0AF0F2
:10145000FF0E5FEC0BF02CC0D9FF2DC0DAFFDF6E62
:101460002C4A2D2A302A2E50305CD8A03AEF0AF0B0
:101470003CEF0AF028EF0AF02CC0D9FF2DC0DAFFAC
:10148000000EDF6E8B821200280EF66E170EF76EBE
:10149000000EF86E00EE42F010EE06F00900F5CFF7
:1014A000EEFFE550E150FAE100EE60F0200EEE6A4A
:1014B000E806FDE100EE01F02A0EEE6AE806FDE125
:1014C0004C904C92000113EF0BF0406E8B92405009
:1014D000200945EC0BF0000E416E7AEF0AF03DC09A
:1014E000D9FF3EC0DAFFDF5045EC0BF03D4A3E2A03
:1014F00000D0412A3F50415CD8A081EF0AF083EF31
:101500000AF06FEF0AF08B8212002F6E8B922F5031
:1015100020095FEC0BF0000E306E9AEF0AF02CC041
:10152000D9FF2DC0DAFFDF505FEC0BF02C4A2D2ADB
:1015300000D0302A2E50305CD8A0A1EF0AF0A3EFE3
:101540000AF08FEF0AF08B8212009E904AC02BF0B7
:101550004BC02CF0EDEC0AF048504910D8B4B3EF72
:101560000AF0B5EF0AF0C1EF0AF002D8C1EF0AF0B5
:101570000500FA6E4850FD6E4950FE6EFF6AFA5043
:1015800012001200000E896E000E8A6E000E8B6E25
:10159000FD0E926E9368D10E946EC40E0F013A6FD9
:1015A0003F0E396F2D0E386F000E616EF18E1200F6
:1015B000000ECC6E0B0ECF6EDC0ECE6ECECF4AF090
:1015C000CFCF4BF09E909D80320E3C6E170E3D6E3D
:1015D0008FEC0BF0210ECD6E1200CDA4F2EF0AF0CD
:1015E000F4EF0AF0FCEF0AF0CD902C50CF6E2BC038
:1015F000CEFFCD8000EF0BF02C50CF6E2BC0CEFF76
:10160000120089B206EF0BF009EF0BF0010E0AEFA2
:101610000BF0000EFF0A2D6E2D4689502D18FD0B84
:101620002D18896E12006CEC0BF0F28EF28C060E07
:101630003C6E100E3D6E8FEC0BF0C4EC08F000F029
:101640001FEF0BF036EF00F031C02CF032C02DF060
:1016500033C02EF0610E1FEC0AF0700E2C6E070ED8
:1016600091EC09F0D1EC09F0120031C02CF032C03D
:101670002DF033C02EF0A00E85EC0AF08B84530EB3
:10168000E82EFED700F08B9412003C6E3CC0C9FFE0
:101690009EA64DEF0BF04FEF0BF048EF0BF09E9630
:1016A000C95012002C6E8B922C501F0B5FEC0BF06C
:1016B000FF0E5FEC0BF02D6E8B822D5012002B6E07
:1016C0002BC0C9FF9EA667EF0BF069EF0BF062EF2E
:1016D0000BF09E96C950120097EC0BF077EC0BF0D4
:1016E000C2EC0AF088EC0BF0D8EC0AF01200400EC5
:1016F000C76E000EC66E010EC86E9496C69A120092
:10170000000E6CEC08F0949294948B828B941200EF
:10171000300ED36E040ED26E000E9B6E12003CC0D3
:1017200048F03DC049F0120068656C6C6F00D09EB7
:041730001200120091
:020000040020DA
:08000000FFFFFFFFFFFFFFFF00
:020000040030CA
:0E000000FF281F3CFFBF85FF0FC00FE00F4021
:00000001FF
