:040000003EEF00F0DF
:100008003F82FACF19F0FBCF1AF0E1CF1BF0E2CF15
:100018001CF0D9CF1DF0DACF1EF0F3CF1FF0F4CFCC
:1000280020F0F2AC1AEF00F01CEF00F02CEF00F01B
:100038009DA021EF00F023EF00F02CEF00F09EA030
:1000480028EF00F02AEF00F02CEF00F068EC0EF03B
:1000580020C0F4FF1FC0F3FF1EC0DAFF1DC0D9FF88
:100068001CC0E2FF1BC0E1FF1AC0FBFF19C0FAFF6A
:080078003F9211000CEF0DF0A6
:10100000000040010000000E0001F56FF551260DB3
:10101000160EF324D96E010EF420DA6EDF50D8A438
:1010200014EF08F016EF08F018EF08F021EF08F0C1
:10103000F52B070EF5651FEF08F021EF08F006EF1E
:1010400008F0080EF519D8A428EF08F02AEF08F0E8
:101050002CEF08F0A1EF08F0F551260DF60EF32461
:10106000276E000EF420286EF551260D170EF3247E
:10107000D96E010EF420DA6EDF50296E04EC0FF009
:10108000070E32EC0FF00001F46FF4BB4AEF08F0EA
:101090004CEF08F053EF08F0F4A951EF08F053EFCC
:1010A00008F056EF08F089925AEF08F000D08982D4
:1010B00040EF08F0700E226E070E2EEC0CF00001CF
:1010C000F4A965EF08F067EF08F06BEF08F0D7ECD4
:1010D0000DF0A1EF08F0F551260D160EF324D96E90
:1010E000010EF420DA6E010EDF6EF4AD7AEF08F037
:1010F0007CEF08F0A1EF08F014EC0FF00001F36FA3
:10110000620E276E000E286EF3C029F0F3EC0EF08D
:10111000620E216E000E226ED8EC0CF00009D8A4ED
:1011200094EF08F096EF08F098EF08F0A1EF08F0C0
:10113000620E0001CC6F000ECD6FF3C0CEF0A2ECBA
:1011400008F01200CCC0D9FFCDC0DAFFDF5000019B
:10115000F26F21EF09F020EE04F0CC51D926CD51E9
:10116000DA22DF50F16FD10E216E000E226E000EDA
:10117000236ECCC024F0CDC025F0050E266ECE51D6
:10118000FB0F276E35EC0DF0D10E0001C56F000E80
:10119000C66FF1514DEC0BF03AEF09F020EE04F080
:1011A000CC51D926CD51DA22DF50A76FA80E216E7F
:1011B000000E226E000E236ECCC024F0CDC025F0B0
:1011C000050E266E050E276E35EC0DF0AD0E216E68
:1011D000000E226E000E236ECCC024F0CDC025F090
:1011E0000A0E266E050E276E35EC0DF0000120EE7E
:1011F0000FF0CC51D926CD51DA22DF50B26F3AEF41
:1012000009F0A30E216E000E226E000E236ECCC0DC
:1012100024F0CDC025F0040E266E030E276E35ECAB
:101220000DF0000120EE07F0CC51D926CD51DA2285
:10123000DF50A66F3AEF09F0040E6EEC0CF03AEFB7
:1012400009F0F251CF6FD06BD051000AD8B42BEF18
:1012500009F01CEF09F0CF51030AD8B4CEEF08F023
:10126000070AD8B401EF09F0140AD8B4ABEF08F0BC
:101270001CEF09F0120060EC0FF02E0E226E000E33
:10128000236E050E246E100E48EC0EF02E0E226E0C
:10129000000E236E050E246E0A0E48EC0EF07A0E38
:1012A000226E000E2EEC0CF0010E226E010E2EECC2
:1012B0000CF0010E226E020E2EEC0CF0030E226ECC
:1012C000030E2EEC0CF0DF0E226E040E2EEC0CF052
:1012D000730E226E050E2EEC0CF00E0E226E060E14
:1012E0002EEC0CF0060E226E1D0E2EEC0CF0010EF4
:1012F000226E1C0E2EEC0CF000D0000E0001A26F2E
:101300002DC0A6F0730EA76FA80E216E000E226EE0
:101310002E0E236E000E246E000E266E050E256E18
:1013200087EC0DF0AD0E216E000E226E2E0E236E98
:10133000000E246E000E266E050E256E87EC0DF055
:10134000A30E216E000E226E340E236E000E246E4C
:10135000000E266E030E256E87EC0DF00A0E0001BE
:10136000B26F000E2C6E2C50260D160EF324D96E83
:10137000010EF420DA6E010EDF6E2C50260D170ED2
:10138000F324D96E010EF420DA6E000EDF6E2C2AE3
:10139000070E2C64CEEF09F0D0EF09F0B3EF09F09F
:1013A0001200000E0001BE6F3BC0BAF03CC0BBF0A3
:1013B0003DC0BCF03EC0BDF0000EBF6FBF51260D5A
:1013C000180EF324D96E010EF420DA6EBA51DE5CE9
:1013D000BB51DE58BC51DE58BD51DE58D8B0F3EFDA
:1013E00009F0F5EF09F007EF0AF0BF51260D180ECE
:1013F000F324D96E010EF420DA6EDECFBAF0DECF20
:10140000BBF0DECFBCF0DECFBDF0BFC0BEF0BF5141
:10141000260D160EF324D96E010EF420DA6EDF507D
:10142000D8B415EF0AF017EF0AF019EF0AF022EF1F
:101430000AF0BF2B070EBF6520EF0AF022EF0AF07B
:10144000DEEF09F0080EBF19D8A429EF0AF02BEF40
:101450000AF02DEF0AF0BEC0BFF0BF51260D160EE8
:10146000F324D96E010EF420DA6E000EDF6EBF5148
:10147000260D170EF324D96E010EF420DA6EB5C0D6
:10148000DFFFBF51260DF60EF324216E000EF4206F
:10149000226EB3C023F0B4C024F0B5C025F0266A94
:1014A00087EC0DF00001BF51260D180EF324D96E04
:1014B000010EF420DA6E3BC0DEFF3CC0DEFF3DC013
:1014C000DEFF3EC0DEFF1200000E176E3BC013F0C1
:1014D0003CC014F03DC015F03EC016F0000E186E72
:1014E0001850260D180EF324D96E010EF420DA6E72
:1014F0001350DE5C1450DE581550DE581650DE587E
:10150000D8B085EF0AF087EF0AF099EF0AF018508B
:10151000260D180EF324D96E010EF420DA6EDECFFC
:1015200013F0DECF14F0DECF15F0DECF16F018C0CA
:1015300017F01850260D160EF324D96E010EF42064
:10154000DA6EDF50D8B4A7EF0AF0A9EF0AF0ABEFDC
:101550000AF0B4EF0AF0182A070E1864B2EF0AF086
:10156000B4EF0AF070EF0AF0080E1818D8A4BBEF19
:101570000AF0BDEF0AF0BFEF0AF017C018F01850DC
:10158000260D160EF324D96E010EF420DA6E000E2D
:10159000DF6E1850260D170EF324D96E010EF420BD
:1015A000DA6E0EC0DFFF1850260DF60EF324016E22
:1015B000000EF420026E0CC003F00DC004F00EC04B
:1015C00005F0066AAFEC0DF01850260D180EF32446
:1015D000D96E010EF420DA6E3BC0DEFF3CC0DEFFA8
:1015E0003DC0DEFF3EC0DEFF1200226EC6BAFBEF3A
:1015F0000AF0FDEF0AF04CEF0BF02250040D010E43
:10160000F326000EF422010EF324F66E100EF420E1
:10161000F76EF86A000EF8220800F5CFC7FF2250D7
:10162000040D010EF324F66E100EF420F76EF86A26
:10163000000EF8220800F5CFC6FF000EC56E22503E
:10164000040D020EF326000EF422010EF324F66EB2
:10165000100EF420F76EF86A000EF8220800F5CF9D
:10166000C8FF2250040D030EF326000EF422010ED3
:10167000F324F66E100EF420F76EF86A000EF822CE
:101680000800F5CF21F0214621462146945021182B
:10169000F70B2118946EC68A12000001C96F000E64
:1016A0000001CB6F000ECA6F84EF0BF08992C5C0AA
:1016B000D9FFC6C0DAFFDF50D8B461EF0BF063EF9B
:1016C0000BF0A1EF0BF08982A1EF0BF0A3EC0CF073
:1016D000A1EF0BF0CA0E216E000E226E23EC0FF06C
:1016E000CA0E0001C06F000EC16F020EC26F020E63
:1016F000A2EC0BF0A1EF0BF0FF00A1EF0BF0040E3A
:101700006EEC0CF0A1EF0BF0C951C76FC86BC8515C
:10171000000AD8B48EEF0BF07FEF0BF0C751020A2E
:10172000D8B46AEF0BF0110AD8B456EF0BF0070AE1
:10173000D8B47CEF0BF0010AD8B466EF0BF07FEF62
:101740000BF012000001C36F000E0001C46F010E08
:10175000826F820E216E000E226E010E236E340EF9
:10176000246E000E256E000E266E030E276E35ECDD
:101770000DF0030E0001C427C42B820EC425D96EC0
:10178000DA6A000EDA22C3C0DFFFC42B820EC42542
:10179000D96EDA6A000EDA22000EDF6E820E216E3A
:1017A000000E226EC429236EC0C024F0C1C025F0F3
:1017B000000E266EC2C027F035EC0DF00001C251BC
:1017C000C427820EB36F000EB46FC429B56FD1EC7D
:1017D00009F012000550061007100810D8B4F3EFF6
:1017E0000BF0F5EF0BF025EF0CF0010E096EFFEF9B
:1017F0000BF0D8900536063607360836092A08AEAB
:1018000004EF0CF006EF0CF0F9EF0BF00550015C63
:10181000065002580750035808500458D8A013EF38
:101820000CF015EF0CF01DEF0CF00550015E0650AA
:10183000025A0750035A0850045AD8900832073207
:1018400006320532092E06EF0CF001C001F002C08D
:1018500002F003C003F004C004F01200236E8B9268
:10186000200E236036EF0CF038EF0CF042EF0CF056
:1018700023501F0B20093FEC0FF022503FEC0FF0DC
:101880006BEF0CF023503FEC0FF0E10E2318D8B4AF
:101890004CEF0CF04EEF0CF06BEF0CF0E20E231857
:1018A000D8B455EF0CF057EF0CF06BEF0CF0E30EE3
:1018B0002318D8B45EEF0CF060EF0CF06BEF0CF077
:1018C0002328D8B466EF0CF068EF0CF06BEF0CF047
:1018D00022503FEC0FF000D08B8212000001C06F4D
:1018E000000E0001C16F010E826F820E216E000E8C
:1018F000226E010E236E340E246E000E256E000E35
:10190000266E030E276E35EC0DF0030E0001C12785
:10191000C12B820EC125D96EDA6A000EDA22000EC2
:10192000DF6EC12B820EC125D96EDA6A000EDA2273
:10193000C0C0DFFF820EB36F000EB46FC129B56F58
:10194000D1EC09F01200010E0001A26FA7C022F035
:10195000050E2EEC0CF0A80E226E000E236E050E66
:10196000246E100E48EC0EF0A80E226E000E236EB0
:10197000050E246E0A0E48EC0EF00001B239F00B91
:101980000F092C6E2CC022F0040E2EEC0CF0340E3D
:10199000216E000E226EA30E236E000E246E000E2A
:1019A000266E030E256E87EC0DF0A6C02DF01200FA
:1019B000000E286E000E276E27502124236E28501B
:1019C0002220246E010E2324D96E000E2420DA6E0C
:1019D000340E2724E16E000E2820E26EDE50E61859
:1019E000D8B4F5EF0CF0F7EF0CF0FAEF0CF0000EB6
:1019F0000BEF0DF0274A282A28BE08EF0DF02850DB
:101A000009E1030E275CD8A008EF0DF00AEF0DF0F6
:101A1000DCEF0CF0010E1200DE0EF66E1E0EF76EFD
:101A2000000EF86E00EE2DF010EE0AF00900F5CF72
:101A3000EEFFE550E150FAE100EEF6F011EE30F085
:101A4000EE6AE550E150FCE1E250FAE100EE60F0B0
:101A5000530EEE6AE806FDE13E6A3D6A3C6A3B6A67
:101A60003F903F920001E0EF0EF0000E2C6E54EF1D
:101A70000DF02C502424286E000E2520296E2650AF
:101A80002824D96E000E2920DA6E2C5021242A6ECB
:101A9000000E22202B6E23502A24E16E000E2B20F4
:101AA000E26EDFCFE7FF2C2A27502C5CD8A05BEF3B
:101AB0000DF05DEF0DF039EF0DF01200000E0C6E21
:101AC0007DEF0DF00C500424086E000E0520096E09
:101AD00006500824D96E000E0920DA6E0C5001243D
:101AE0000A6E000E02200B6E03500A24E16E000EF7
:101AF0000B20E26EDFCFE7FF0C2A07500C5CD8A06A
:101B000084EF0DF086EF0DF062EF0DF0120023C0B0
:101B10002AF024C02BF021C028F022C029F0A1EF28
:101B20000DF02AC0D9FF2BC0DAFFDF50276E2A4AFA
:101B30002B2A28C0D9FF29C0DAFF27C0DFFF284A97
:101B4000292A2506D8A02606252806E12628D8A475
:101B5000ACEF0DF0AEEF0DF091EF0DF0120003C001
:101B600009F004C00AF001C007F002C008F0C9EF94
:101B70000DF009C0D9FF0AC0DAFFDF500B6E094A29
:101B80000A2A07C0D9FF08C0DAFF0BC0DFFF074AE7
:101B9000082A0506D8A00606052806E10628D8A4C6
:101BA000D4EF0DF0D6EF0DF0B9EF0DF012008B92DF
:101BB000700E226E070E2EEC0CF0040E246E3E0EFC
:101BC000E82EFED7242EFCD78B828B92E10E3FECC1
:101BD0000FF0040E246E3E0EE82EFED7242EFCD706
:101BE0008B828B92E20E3FEC0FF0040E246E3E0EC1
:101BF000E82EFED7242EFCD78B821200256E8B9206
:101C000025503FEC0FF0000E266E12EF0EF0FF0E87
:101C10003FEC0FF022C0D9FF23C0DAFFDF6E224A6B
:101C2000232A262A2450265CD8A019EF0EF01BEF99
:101C30000EF007EF0EF022C0D9FF23C0DAFF000E2E
:101C4000DF6E8B821200010E3B26000E3C223D22ED
:101C50003E223BC001F03CC002F03DC003F03EC05C
:101C600004F02D50056E066A076A086AEAEC0BF06C
:101C70000150021003100410D8B441EF0EF043EFEE
:101C80000EF045EF0EF047EF0EF085EC0EF012006F
:101C9000256E8B92255020093FEC0FF0000E266E2A
:101CA0005DEF0EF022C0D9FF23C0DAFFDF503FEC1A
:101CB0000FF0224A232A00D0262A2450265CD8A0DE
:101CC00064EF0EF066EF0EF052EF0EF08B82120012
:101CD0009E9039C001F03AC002F0CCEC0EF03750C3
:101CE0003810D8B476EF0EF078EF0EF084EF0EF0E7
:101CF00002D884EF0EF00500FA6E3750FD6E3850B2
:101D0000FE6EFF6AFA5012001200020E0001826F8E
:101D1000820E016E000E026E010E036E340E046E12
:101D2000000E056E000E066E030E076E5EEC0DF0E3
:101D3000820E0C6E000E0D6E040E0E6E64EC0AF038
:101D40001200000E896E000E8A6E000E8B6EFD0E64
:101D5000926E9368D10E946EC40E0F013A6F3F0ECF
:101D6000396F2D0E386F000E616EF18E1200000E6D
:101D7000CC6E0B0ECF6EDC0ECE6ECECF39F0CFCF49
:101D80003AF09E909D80F60E216E1E0E226E74EC2F
:101D90000FF0210ECD6E1200CDA4D1EF0EF0D3EFD7
:101DA0000EF0DBEF0EF0CD900250CF6E01C0CEFFF3
:101DB000CD80DFEF0EF00250CF6E01C0CEFF1200DB
:101DC0004CEC0FF0F28EF28C460E216E1C0E226E41
:101DD00074EC0FF03BEC09F003EC08F000F0ECEFD2
:101DE0000EF03EEF00F027C022F028C023F029C0FB
:101DF00024F0610EFEEC0DF0700E226E070E2EEC3C
:101E00000CF0D7EC0DF0120027C022F028C023F010
:101E100029C024F0A00E48EC0EF08B84530EE82E5F
:101E2000FED700F08B9412008B92600E3FEC0FF007
:101E3000FF0E3FEC0FF0226E530EE82EFED700F09F
:101E40008B822250120021C0D9FF22C0DAFF230E5C
:101E5000DF6E20EE01F02150D9262250DA22280E22
:101E6000DF6E1200226E8B9222501F0B3FEC0FF0A0
:101E7000FF0E3FEC0FF0236E8B8223501200216E79
:101E800021C0C9FF9EA647EF0FF049EF0FF042EFC8
:101E90000FF09E96C950120079EC0FF057EC0FF03E
:101EA000A1EC0EF068EC0FF0B7EC0EF01200400E53
:101EB000C76E000EC66E010EC86E9496C69A1200CA
:101EC000000EF5EC0AF0949294948B828B9412009D
:101ED000300ED36E040ED26E000E9B6E120001689F
:101EE000656C6C6F00FFFFFF21C037F022C038F037
:081EF0001200D09E1200120046
:020000040020DA
:08000000FFFFFFFFFFFFFFFF00
:020000040030CA
:0E000000FF281F3CFFBF85FF0FC00FE00F4021
:00000001FF
