:040000003EEF00F0DF
:100008003982FACF0AF0FBCF0BF0E1CF0CF0E2CF48
:100018000DF0D9CF0EF0DACF0FF0F3CF10F0F4CF08
:1000280011F0F2AC1AEF00F01CEF00F02CEF00F02A
:100038009DA021EF00F023EF00F02CEF00F09EA030
:1000480028EF00F02AEF00F02CEF00F08BEC0CF01A
:1000580011C0F4FF10C0F3FF0FC0DAFF0EC0D9FFC4
:100068000DC0E2FF0CC0E1FF0BC0FBFF0AC0FAFFA6
:08007800399211007FEF0BF03B
:10100000000040010000000E2A6E2A50220DEA0E58
:10101000F324D96E000EF420DA6EDF50D8A413EF5B
:1010200008F015EF08F017EF08F020EF08F02A2A73
:10103000070E2A641EEF08F020EF08F005EF08F015
:10104000080E2A18D8A427EF08F029EF08F02BEF94
:1010500008F09AEF08F02A50220DCA0EF324186EF9
:10106000000EF420196E2A50220DEB0EF324D96ED7
:10107000000EF420DA6EDF501A6E0BEC0DF0070E46
:101080002AEC0DF0296E29BA48EF08F04AEF08F073
:1010900056EF08F029A84FEF08F051EF08F053EF92
:1010A00008F056EF08F000D03FEF08F0700E136E16
:1010B000070ED4EC0AF029A860EF08F062EF08F000
:1010C00066EF08F0D4EC0BF09AEF08F02A50220DEE
:1010D000EA0EF324D96E000EF420DA6E010EDF6EF4
:1010E00029AC75EF08F077EF08F09AEF08F01BECE9
:1010F0000DF0286E600E186E000E196E28C01AF0E2
:10110000FAEC0CF0600E126E000E136E4BEC0BF04E
:101110000009D8A48EEF08F090EF08F092EF08F0E5
:101120009AEF08F0600E206E000E216E28C022F0AB
:101130009BEC08F0120020C0D9FF21C0DAFFDF507D
:101140000001C16FF0EF08F020EE04F02050D92626
:101150002150DA22DF50C06F000EC36F000EC26F45
:10116000C8EF08F0C2512024236EC3512120246E01
:10117000050E2324D96E000E2420DA6EA00EC2259F
:10118000E16E000EC321E26EDFCFE7FFC24BC32B3F
:10119000FB0E236EFF0E246E2250256E266A23500E
:1011A0002526245026222550C25DC351800A276E71
:1011B0002650800A2758D8A0E0EF08F0E2EF08F0A8
:1011C000B2EF08F0A00E1B6E000E1C6EC051AAEC10
:1011D0000BF005EF09F0040E14EC0BF005EF09F02D
:1011E000C151236E246A2450000AD8B4FAEF08F0E3
:1011F000EBEF08F02350030AD8B405EF09F0130A07
:10120000D8B4A4EF08F0EBEF08F0120058EC0DF0A2
:10121000C40E136E000E146E050E156E100E6BECE0
:101220000CF0C40E136E000E146E050E156E0A0E31
:101230006BEC0CF07A0E136E000ED4EC0AF0010E7B
:10124000136E010ED4EC0AF0010E136E020ED4ECF4
:101250000AF0030E136E030ED4EC0AF0DF0E136EC9
:10126000040ED4EC0AF0730E136E050ED4EC0AF0E3
:101270000E0E136E060ED4EC0AF0060E136E1D0E43
:10128000D4EC0AF0010E136E1C0ED4EC0AF000D060
:10129000000E2B6E000E306E020E2F6E000E186EBA
:1012A0001850220DEA0EF324D96E000EF420DA6EE7
:1012B000010EDF6E1850220DEB0EF324D96E000ED6
:1012C000F420DA6E000EDF6E182A070E18646BEF3A
:1012D00009F06DEF09F050EF09F01200000E186EE2
:1012E0001850220DEA0EF324D96E000EF420DA6EA7
:1012F000DF50D8B47EEF09F080EF09F082EF09F0FB
:101300008BEF09F0182A070E186489EF09F08BEFAC
:1013100009F070EF09F0080E1818D8A492EF09F040
:1013200094EF09F097EF09F0000ED2EF09F0185092
:10133000220DEA0EF324D96E000EF420DA6E000EB0
:10134000DF6E1850220DEB0EF324D96E000EF42040
:10135000DA6E14C0DFFF000E176EC8EF09F01750E9
:101360001224D96E000E1320DA6E1850220DCA0E08
:10137000156E000E166EF3501526F45016221750F7
:101380001524E16E000E1620E26EDFCFE7FF172A6C
:101390001450175CD8A0CFEF09F0D1EF09F0AFEFF0
:1013A00009F0010E1200000E076E0750220DEA0E22
:1013B000F324D96E000EF420DA6EDF50D8B4E3EFD8
:1013C00009F0E5EF09F0E7EF09F0F0EF09F0072A7F
:1013D000070E0764EEEF09F0F0EF09F0D5EF09F022
:1013E000080E0718D8A4F7EF09F0F9EF09F0FCEFA1
:1013F00009F0000E37EF0AF00750220DEA0EF32431
:10140000D96E000EF420DA6E000EDF6E0750220D4A
:10141000EB0EF324D96E000EF420DA6E03C0DFFF6A
:10142000000E066E2DEF0AF006500124D96E000E54
:101430000220DA6E0750220DCA0E046E000E056EF1
:10144000F3500426F450052206500424E16E000EE9
:101450000520E26EDFCFE7FF062A0350065CD8A026
:1014600034EF0AF036EF0AF014EF0AF0010E120022
:10147000136EC6BA3EEF0AF040EF0AF08FEF0AF0A3
:101480001350040D010EF326000EF422010EF32476
:10149000F66E100EF420F76EF86A000EF8220800BF
:1014A000F5CFC7FF1350040D010EF324F66E100E96
:1014B000F420F76EF86A000EF8220800F5CFC6FF98
:1014C000000EC56E1350040D020EF326000EF4221A
:1014D000010EF324F66E100EF420F76EF86A000E7B
:1014E000F8220800F5CFC8FF1350040D030EF326B1
:1014F000000EF422010EF324F66E100EF420F76EA7
:10150000F86A000EF8220800F5CF12F012461246D3
:10151000124694501218F70B1218946EC68A1200D5
:101520000550061007100810D8B499EF0AF09BEF89
:101530000AF0CBEF0AF0010E096EA5EF0AF0D89081
:101540000536063607360836092A08AEAAEF0AF02D
:10155000ACEF0AF09FEF0AF00550015C065002580C
:101560000750035808500458D8A0B9EF0AF0BBEF51
:101570000AF0C3EF0AF00550015E0650025A075008
:10158000035A0850045AD8900832073206320532FE
:10159000092EACEF0AF001C001F002C002F003C056
:1015A00003F004C004F01200146E8B92200E14603D
:1015B000DCEF0AF0DEEF0AF0E8EF0AF014501F0B40
:1015C000200937EC0DF0135037EC0DF011EF0BF054
:1015D000145037EC0DF0E10E1418D8B4F2EF0AF005
:1015E000F4EF0AF011EF0BF0E20E1418D8B4FBEF91
:1015F0000AF0FDEF0AF011EF0BF0E30E1418D8B467
:1016000004EF0BF006EF0BF011EF0BF01428D8B439
:101610000CEF0BF00EEF0BF011EF0BF0135037EC5B
:101620000DF000D08B821200196E010E0001806F48
:10163000010E1A6E2B0E1A24D96EDA6A000EDA2207
:10164000800E1A24E16EE26A000EE222DFCFE7FF8D
:101650001A2A030E1A642FEF0BF031EF0BF01AEF7A
:101660000BF0800E1A24D96EDA6A000EDA22000E10
:10167000DF6E1A2A800E1A24D96EDA6A000EDA2278
:1016800019C0DFFF800E126E000E136E1A28146E42
:101690006EEC09F01200000E196E000E186E185054
:1016A0001224146E19501320156E010E1424D96ED5
:1016B000000E1520DA6E2C0E1824E16E000E192093
:1016C000E26EDE50E618D8B468EF0BF06AEF0BF06C
:1016D0006DEF0BF0000E7EEF0BF0184A192A19BEC1
:1016E0007BEF0BF0195009E1030E185CD8A07BEFDB
:1016F0000BF07DEF0BF04FEF0BF0010E1200D80E48
:10170000F66E1A0EF76E000EF86E00EEC4F010EED4
:1017100006F00900F5CFEEFFE550E150FAE100EEEA
:10172000CAF011EE10F0EE6AE550E150FCE1E25033
:10173000FAE100EE60F0400EEE6AE806FDE100EE30
:101740002BF00A0EEE6AE806FDE1399039920001AD
:10175000E7EF0CF01F6EC2EF0BF089921BC0D9FFB0
:101760001CC0DAFFDF50D8B4B8EF0BF0BAEF0BF0C3
:10177000D3EF0BF08982D3EF0BF0040E14EC0BF0D7
:10178000D3EF0BF01F501D6E1E6A1E50000AD8B416
:10179000CCEF0BF0BDEF0BF01D50130AD8B4ADEF3A
:1017A0000BF0BDEF0BF012008B92700E136E070E54
:1017B000D4EC0AF0040E156E3E0EE82EFED7152E60
:1017C000FCD78B828B92E10E37EC0DF0040E156E78
:1017D0003E0EE82EFED7152EFCD78B828B92E20EA2
:1017E00037EC0DF0040E156E3E0EE82EFED7152ECA
:1017F000FCD78B821200010E3126000E32223322DA
:10180000342231C001F032C002F033C003F034C0E2
:1018100004F02FC005F030C006F0076A086A90ECAB
:101820000AF00150021003100410D8B41AEF0CF0A3
:101830001CEF0CF01EEF0CF020EF0CF046EC0CF05F
:101840001200166E8B92165037EC0DF0000E176ECC
:1018500035EF0CF0FF0E37EC0DF013C0D9FF14C0BC
:10186000DAFFDF6E134A142A172A1550175CD8A026
:101870003CEF0CF03EEF0CF02AEF0CF013C0D9FF58
:1018800014C0DAFF000EDF6E8B821200020E000120
:10189000806F000E086E2C0E0824D96EDA6A000ED6
:1018A000DA22810E0824E16EE26A000EE222DFCF26
:1018B000E7FF082A020E086460EF0CF062EF0CF0FC
:1018C0004BEF0CF0800E016E000E026E040E036EE4
:1018D000D3EC09F01200166E8B921650200937ECEB
:1018E0000DF0000E176E80EF0CF013C0D9FF14C07E
:1018F000DAFFDF5037EC0DF0134A142A00D0172A14
:101900001550175CD8A087EF0CF089EF0CF075EF3D
:101910000CF08B8212009E9037C001F038C002F0AC
:10192000D3EC0CF035503610D8B499EF0CF09BEF97
:101930000CF0A7EF0CF002D8A7EF0CF00500FA6E40
:101940003550FD6E3650FE6EFF6AFA5012001200DE
:10195000000E896E000E8A6E000E8B6EFD0E926E6A
:101960009368D10E946EC40E0F013A6F3F0E396F1B
:101970002D0E386F000E616EF18E1200000ECC6ECF
:101980000B0ECF6EDC0ECE6ECECF37F0CFCF38F051
:101990009E909D80E20E126E1A0E136E67EC0DF093
:1019A000210ECD6E1200CDA4D8EF0CF0DAEF0CF0C2
:1019B000E2EF0CF0CD900250CF6E01C0CEFFCD8093
:1019C000E6EF0CF00250CF6E01C0CEFF120044ECE7
:1019D0000DF0F28EF28CF60E126E170E136E67EC8F
:1019E0000DF006EC09F003EC08F000F0F3EF0CF05A
:1019F0003EEF00F018C013F019C014F01AC015F033
:101A0000610E21EC0CF0700E136E070ED4EC0AF090
:101A1000D4EC0BF0120018C013F019C014F01AC067
:101A200015F0A00E6BEC0CF08B84530EE82EFED755
:101A300000F08B9412008B92600E37EC0DF0FF0ECD
:101A400037EC0DF0136E530EE82EFED700F08B82AC
:101A500013501200136E8B9213501F0B37EC0DF0C6
:101A6000FF0E37EC0DF0146E8B8214501200126EC4
:101A700012C0C9FF9EA63FEF0DF041EF0DF03AEF07
:101A80000DF09E96C95012006FEC0DF04FEC0DF06A
:101A9000A8EC0CF060EC0DF0BEEC0CF01200400E67
:101AA000C76E000EC66E010EC86E9496C69A1200DE
:101AB000000E38EC0AF0949294948B828B9412006E
:101AC000300ED36E040ED26E000E9B6E120012C04A
:101AD00035F013C036F0120068656C6C6F00D09E54
:041AE00012001200DE
:020000040020DA
:08000000FFFFFFFFFFFFFFFF00
:020000040030CA
:0E000000FF281F3CFFBF85FF0FC00FE00F4021
:00000001FF
