:0400000036EF00F0E7
:100008004382FACF35F0FBCF36F0E1CF37F0E2CFBD
:1000180038F0D9CF39F0DACF3AF0F2AC16EF00F079
:1000280018EF00F028EF00F09DA01DEF00F01FEF83
:1000380000F028EF00F09EA024EF00F026EF00F07B
:1000480028EF00F094EC0BF03AC0DAFF39C0D9FF82
:1000580038C0E2FF37C0E1FF36C0FBFF35C0FAFF0A
:080068004392110075EF0BF04B
:10100000000040010000010E3F26000E4022412258
:1010100042223FC001F040C002F041C003F042C094
:1010200004F064C005F065C006F0076A086AE0ECE9
:1010300009F00150021003100410D8B422EF08F098
:1010400024EF08F026EF08F087EF08F0860E016E17
:10105000000E026EBFEC0AF0326E860E076E000EB6
:10106000086E32C009F014EC0CF0070E41EC0CF0E5
:10107000346E34BA3EEF08F040EF08F04CEF08F061
:1010800034A845EF08F047EF08F049EF08F04CEFBF
:1010900008F000D035EF08F0700E026E070E24EC59
:1010A0000AF034A856EF08F058EF08F05DEF08F0AA
:1010B000898298EC0AF087EF08F034AC62EF08F010
:1010C00064EF08F087EF08F024EC0CF0336E660E46
:1010D000076E000E086E33C009F003EC0CF0660ECC
:1010E000016E000E026E64EC0AF00009D8A47BEFDA
:1010F00008F07DEF08F07FEF08F087EF08F0660E4C
:10110000066E000E076E33C008F088EC08F012007F
:1011100006C0D9FF07C0DAFFDF502E6ED7EF08F008
:1011200020EE04F00650D9260750DA22DF502F6E49
:10113000000E316E000E306EB4EF08F03050062411
:10114000096E315007200A6E050E0924D96E000E73
:101150000A20DA6E0E0E3024E16E000E3120E26EAF
:10116000DFCFE7FF304A312AFB0E096EFF0E0A6E11
:1011700008500B6E0C6A09500B260A500C220B50BB
:10118000305C3150800A0D6E0C50800A0D58D8A08A
:10119000CCEF08F0CEEF08F09EEF08F00E0E016ED7
:1011A000000E026E2F5030EC0BF0ECEF08F02E50DA
:1011B000096E0A6A0A50000AD8B4E1EF08F0ECEFB1
:1011C00008F00950030AD8B4ECEF08F0130AD8B4B9
:1011D00090EF08F0ECEF08F012000001AD6FC6BA16
:1011E000F4EF08F0F6EF08F046EF09F00001AD511A
:1011F000040D010EF326000EF422010EF324F66E08
:10120000100EF420F76EF86A000EF8220800F5CFF1
:10121000C7FFAD51040D010EF324F66E100EF4203D
:10122000F76EF86A000EF8220800F5CFC6FF000E30
:10123000C56EAD51040D020EF326000EF422010E10
:10124000F324F66E100EF420F76EF86A000EF82202
:101250000800F5CFC8FFAD51040D030EF326000EB4
:10126000F422010EF324F66E100EF420F76EF86AE5
:10127000000EF8220800F5CFACF0AC47AC47AC4705
:101280009450AC19F70BAC19946EC68A12006FEC2F
:101290000CF0A60E0001AD6F000EAE6F050EAF6F25
:1012A000100EE6EC0AF0A60E0001AD6F000EAE6F58
:1012B000050EAF6F0A0EE6EC0AF07A0E0001AD6F74
:1012C000000E9CEC09F0010E0001AD6F010E9CECCC
:1012D00009F0010E0001AD6F020E9CEC09F0030E47
:1012E0000001AD6F030E9CEC09F0DF0E0001AD6F45
:1012F000040E9CEC09F0730E0001AD6F050E9CEC22
:1013000009F00E0E0001AD6F060E9CEC09F0060E02
:101310000001AD6F1D0E9CEC09F0010E0001AD6FD8
:101320001C0E9CEC09F000D0000E0001606F000E56
:10133000656F020E646F12000001AE6F8B92200E7B
:101340000001AE61A6EF09F0A8EF09F0B3EF09F0D4
:10135000AE511F0B200933EC0CF00001AD5133EC02
:101360000CF0DDEF09F0AE5133EC0CF0E10E0001B2
:10137000AE19D8B4BEEF09F0C0EF09F0DDEF09F007
:10138000E20EAE19D8B4C7EF09F0C9EF09F0DDEFEE
:1013900009F0E30EAE19D8B4D0EF09F0D2EF09F09E
:1013A000DDEF09F0AE29D8B4D8EF09F0DAEF09F093
:1013B000DDEF09F0AD5133EC0CF000D08B82120060
:1013C0000550061007100810D8B4E9EF09F0EBEF4C
:1013D00009F01BEF0AF0010E096EF5EF09F0D89045
:1013E0000536063607360836092A08AEFAEF09F040
:1013F000FCEF09F0EFEF09F00550015C06500258D0
:101400000750035808500458D8A009EF0AF00BEF12
:101410000AF013EF0AF00550015E0650025A075019
:10142000035A0850045AD89008320732063205325F
:10143000092EFCEF09F001C001F002C002F003C068
:1014400003F004C004F01200036E8B92200E0360C0
:101450002CEF0AF02EEF0AF038EF0AF003501F0BC2
:1014600020094EEC0CF002504EEC0CF061EF0AF04B
:1014700003504EEC0CF0E10E0318D8B442EF0AF022
:1014800044EF0AF061EF0AF0E20E0318D8B44BEF14
:101490000AF04DEF0AF061EF0AF0E30E0318D8B43A
:1014A00054EF0AF056EF0AF061EF0AF00328D8B4BF
:1014B0005CEF0AF05EEF0AF061EF0AF002504EECCA
:1014C0000CF000D08B821200000E086E000E076E2A
:1014D00007500124036E08500220046E010E0324FD
:1014E000D96E000E0420DA6E610E0724E16E000E44
:1014F0000820E26EDE50E618D8B481EF0AF083EFE0
:101500000AF086EF0AF0000E97EF0AF0074A082A61
:1015100008BE94EF0AF0085009E1030E075CD8A05A
:1015200094EF0AF096EF0AF068EF0AF0010E12004D
:101530008B92700E026E070E24EC0AF0040E046EFD
:101540003E0EE82EFED7042EFCD78B828B92E10E46
:101550004EEC0CF0040E046E3E0EE82EFED7042E68
:10156000FCD78B828B92E20E4EEC0CF0040E046ED4
:101570003E0EE82EFED7042EFCD78B82120001C04F
:10158000D9FF02C0DAFF020EDF6E000E056E610E9B
:101590000524D96EDA6A000EDA2205500124036EA2
:1015A000000E0220046E010E0324E16E000E0420E2
:1015B000E26EDFCFE7FF052A020E0564E2EF0AF0D4
:1015C000E4EF0AF0C7EF0AF0040E12000001B06F5A
:1015D0008B920001B051200933EC0CF0000E000199
:1015E000B16F00EF0BF0ADC0D9FFAEC0DAFFDF5036
:1015F00033EC0CF00001AD4BAE2B00D00001B12B51
:10160000AF51B15DD8A007EF0BF009EF0BF0F3EF8E
:101610000AF08B821200056E8B9205504EEC0CF096
:10162000000E066E1FEF0BF0FF0E4EEC0CF002C02A
:10163000D9FF03C0DAFFDF6E024A032A062A0450EC
:10164000065CD8A026EF0BF028EF0BF014EF0BF0A0
:1016500002C0D9FF03C0DAFF000EDF6E8B821200DA
:10166000056E43EF0BF0899201C0D9FF02C0DAFF8B
:10167000DF50D8B43EEF0BF040EF0BF054EF0BF01F
:10168000898254EF0BF00550036E046A0450000A7F
:10169000D8B44DEF0BF054EF0BF00350130AD8B44D
:1016A00033EF0BF054EF0BF01200056E8B920550E8
:1016B00020094EEC0CF0000E066E6AEF0BF002C033
:1016C000D9FF03C0DAFFDF504EEC0CF0024A032AC8
:1016D00000D0062A0450065CD8A071EF0BF073EF1F
:1016E0000BF05FEF0BF08B821200060EF66E190EF8
:1016F000F76E000EF86E00EEA6F010EE06F0090090
:10170000F5CFEEFFE550E150FAE100EE60F0460E55
:10171000EE6AE806FDE1426A416A406A3F6A439028
:1017200043920001F1EF0BF09E903DC001F03EC0EE
:1017300002F0DDEC0BF03B503C10D8B4A2EF0BF004
:10174000A4EF0BF0B0EF0BF002D8B0EF0BF00500F8
:10175000FA6E3B50FD6E3C50FE6EFF6AFA5012006E
:101760001200000ECC6E0B0ECF6EDC0ECE6ECECF06
:101770003DF0CFCF3EF09E909D80100E0001AC6FEB
:10178000190EAD6F7EEC0CF0210ECD6E1200000E26
:10179000896E000E8A6E000E8B6EFD0E926E93683F
:1017A000D10E946EC40E0F013A6F3F0E396F2D0E9D
:1017B000386F000E616EF18E1200CDA4E2EF0BF0D7
:1017C000E4EF0BF0ECEF0BF0CD900250CF6E01C0C8
:1017D000CEFFCD80F0EF0BF00250CF6E01C0CEFFF8
:1017E00012005BEC0CF0F28EF28C060E0001AC6F76
:1017F000100EAD6F7EEC0CF047EC09F000F0FEEF40
:101800000BF036EF00F007C002F008C003F009C08B
:1018100004F0610E0BEC0BF0700E026E070E24EC60
:101820000AF098EC0AF0120007C002F008C003F0BA
:1018300009C004F0A00E55EC0BF08B84530EE82E7B
:10184000FED700F08B9412008B92600E4EEC0CF0E1
:10185000FF0E4EEC0CF0026E530EE82EFED700F099
:101860008B82025012000001AC6FACC0C9FF9EA673
:101870003CEF0CF03EEF0CF037EF0CF09E96C950A9
:101880001200026E8B9202501F0B4EEC0CF0FF0EFA
:101890004EEC0CF0036E8B8203501200016E01C0FF
:1018A000C9FF9EA656EF0CF058EF0CF051EF0CF06C
:1018B0009E96C950120086EC0CF066EC0CF0C7EC5A
:1018C0000BF077EC0CF0B1EC0BF01200400EC76E91
:1018D000000EC66E010EC86E9496C69A1200000ED7
:1018E000EDEC08F0949294948B828B941200300E5D
:1018F000D36E040ED26E000E9B6E1200ACC03BF095
:10190000ADC03CF0120068656C6C6F00D09E120098
:021910001200C3
:020000040020DA
:08000000FFFFFFFFFFFFFFFF00
:020000040030CA
:0E000000FF281F3CFFBF85FF0FC00FE00F4021
:00000001FF
