:0400000036EF00F0E7
:100008004D82FACF37F0FBCF38F0E1CF39F0E2CFAD
:100018003AF0D9CF3BF0DACF3CF0F2AC16EF00F073
:1000280018EF00F028EF00F09DA01DEF00F01FEF83
:1000380000F028EF00F09EA024EF00F026EF00F07B
:1000480028EF00F0A9EC0AF03CC0DAFF3BC0D9FF6A
:100058003AC0E2FF39C0E1FF38C0FBFF37C0FAFF02
:080068004D92110048EF0AF06F
:10100000000040010000010E0726000E0822092200
:101010000A2207C02BF008C02CF009C02DF00AC02E
:101020002EF005C02FF006C030F0316A326A11ECA4
:1010300009F02B502C102D102E10D8B422EF08F0F0
:1010400024EF08F026EF08F06FEF08F00B0E2B6E80
:10105000000E2C6EFCEC09F0346E0B0E316E000E9F
:10106000326E34C033F039EC0BF0070E56EC0BF057
:10107000366E36BA3EEF08F040EF08F047EF08F062
:1010800036A845EF08F047EF08F035EF08F0700E8E
:101090002C6E070E95EC09F036A851EF08F053EFCF
:1010A00008F055EF08F06FEF08F036AC5AEF08F093
:1010B0005CEF08F06FEF08F07BEC0BF0356E600E24
:1010C000316E000E326E35C033F028EC0BF0600E3E
:1010D0002B6E000E2C6E35C02DF005EC0BF01200BF
:1010E0003E6EC6BA76EF08F078EF08F0C7EF08F06A
:1010F0003E50040D010EF326000EF422010EF324DF
:10110000F66E100EF420F76EF86A000EF822080052
:10111000F5CFC7FF3E50040D010EF324F66E100EFE
:10112000F420F76EF86A000EF8220800F5CFC6FF2B
:10113000000EC56E3E50040D020EF326000EF42282
:10114000010EF324F66E100EF420F76EF86A000E0E
:10115000F8220800F5CFC8FF3E50040D030EF32619
:10116000000EF422010EF324F66E100EF420F76E3A
:10117000F86A000EF8220800F5CF3DF03D463D46E6
:101180003D4694503D18F70B3D18946EC68A1200E8
:101190008FEC0BF0430E3E6E000E3F6E050E406E60
:1011A000100E69EC0AF0430E3E6E000E3F6E050E07
:1011B000406E0A0E69EC0AF00A0E3E6E000E55EC07
:1011C00009F0010E3E6E010E55EC09F0010E3E6E67
:1011D000020E55EC09F0030E3E6E030E55EC09F0BD
:1011E000AA0E3E6E040E55EC09F0730E3E6E050E0F
:1011F00055EC09F00E0E3E6E060E55EC09F0060E8B
:101200003E6E1D0E55EC09F0010E3E6E1C0E55ECA7
:1012100009F000D0000E016E000E066E010E056E84
:1012200012002F50301031103210D8B41AEF09F0DC
:101230001CEF09F04CEF09F0010E336E26EF09F0B8
:10124000D8902F36303631363236332A32AE2BEF45
:1012500009F02DEF09F020EF09F02F502B5C3050F2
:101260002C5831502D5832502E58D8A03AEF09F052
:101270003CEF09F044EF09F02F502B5E30502C5A10
:1012800031502D5A32502E5AD890323231323032BB
:101290002F32332E2DEF09F02BC02BF02CC02CF069
:1012A0002DC02DF02EC02EF012003F6E8B92200E1E
:1012B0003F605DEF09F05FEF09F069EF09F03F5023
:1012C0001F0B200949EC0BF03E5049EC0BF092EF5C
:1012D00009F03F5049EC0BF0E10E3F18D8B473EF22
:1012E00009F075EF09F092EF09F0E20E3F18D8B45B
:1012F0007CEF09F07EEF09F092EF09F0E30E3F1862
:10130000D8B485EF09F087EF09F092EF09F03F2894
:10131000D8B48DEF09F08FEF09F092EF09F03E504D
:1013200049EC0BF000D08B8212002D6E8B92200EB8
:101330002D609DEF09F09FEF09F0A9EF09F02D5006
:101340001F0B200963EC0BF02C5063EC0BF0D2EF79
:1013500009F02D5063EC0BF0E10E2D18D8B4B3EF6B
:1013600009F0B5EF09F0D2EF09F0E20E2D18D8B46C
:10137000BCEF09F0BEEF09F0D2EF09F0E30E2D1833
:10138000D8B4C5EF09F0C7EF09F0D2EF09F02D2866
:10139000D8B4CDEF09F0CFEF09F0D2EF09F02C501F
:1013A00063EC0BF000D08B8212008B92700E2C6ECF
:1013B000070E95EC09F0040E2E6E3E0EE82EFED7B9
:1013C0002E2EFCD78B828B92E10E63EC0BF0040E79
:1013D0002E6E3E0EE82EFED72E2EFCD78B828B92E1
:1013E000E20E63EC0BF0040E2E6E3E0EE82EFED7DE
:1013F0002E2EFCD78B8212002BC0D9FF2CC0DAFF17
:10140000020EDF6E000E2F6E020E2F24D96EDA6AE6
:10141000000EDA222F502B242D6E000E2C202E6E63
:10142000010E2D24E16E000E2E20E26EDFCFE7FFCD
:101430002F2A020E2F641FEF0AF021EF0AF004EFAB
:101440000AF0040E12002F6E8B922F5063EC0BF0FB
:10145000000E306E37EF0AF0FF0E63EC0BF02CC07D
:10146000D9FF2DC0DAFFDF6E2C4A2D2A302A2E50EC
:10147000305CD8A03EEF0AF040EF0AF02CEF0AF003
:101480002CC0D9FF2DC0DAFF000EDF6E8B82120058
:10149000460EF66E170EF76E000EF86E00EE43F075
:1014A00010EE06F00900F5CFEEFFE550E150FAE14D
:1014B00000EE60F0200EEE6AE806FDE100EE01F0BD
:1014C0002A0EEE6AE806FDE14D904D92000117EFFD
:1014D0000BF0416E8B924150200949EC0BF0000E4D
:1014E000426E7EEF0AF03EC0D9FF3FC0DAFFDF5008
:1014F00049EC0BF03E4A3F2A00D0422A4050425C61
:10150000D8A085EF0AF087EF0AF073EF0AF08B821C
:1015100012002F6E8B922F50200963EC0BF0000EFF
:10152000306E9EEF0AF02CC0D9FF2DC0DAFFDF50DD
:1015300063EC0BF02C4A2D2A00D0302A2E50305C60
:10154000D8A0A5EF0AF0A7EF0AF093EF0AF08B827C
:1015500012009E904BC02BF04CC02CF0F1EC0AF026
:1015600049504A10D8B4B7EF0AF0B9EF0AF0C5EF06
:101570000AF002D8C5EF0AF00500FA6E4950FD6E78
:101580004A50FE6EFF6AFA5012001200000E896E79
:10159000000E8A6E000E8B6EFD0E926E9368D10E59
:1015A000946EC40E0F013A6F3F0E396F2D0E386FD7
:1015B000000E616EF18E1200000ECC6E0B0ECF6E1F
:1015C000DC0ECE6ECECF4BF0CFCF4CF09E909D80F8
:1015D000500E3D6E170E3E6E9EEC0BF0210ECD6E42
:1015E0001200CDA4F6EF0AF0F8EF0AF000EF0BF0CE
:1015F000CD902C50CF6E2BC0CEFFCD8004EF0BF0E2
:101600002C50CF6E2BC0CEFF120089B20AEF0BF028
:101610000DEF0BF0010E0EEF0BF0000EFF0A2E6E19
:101620002E4689502E18FD0B2E18896E120070EC74
:101630000BF0F28EF28C060E3D6E100E3E6E9EEC9E
:101640000BF0C8EC08F000F023EF0BF036EF00F0E1
:1016500031C02CF032C02DF033C02EF0610E23ECDF
:101660000AF0700E2C6E070E95EC09F0D5EC09F01F
:10167000120031C02CF032C02DF033C02EF0A00E7D
:1016800089EC0AF08B84530EE82EFED700F08B9481
:1016900012003D6E3DC0C9FF9EA651EF0BF053EF07
:1016A0000BF04CEF0BF09E96C95012002C6E8B92F3
:1016B0002C501F0B63EC0BF0FF0E63EC0BF02D6E48
:1016C0008B822D5012002B6E2BC0C9FF9EA66BEF94
:1016D0000BF06DEF0BF066EF0BF09E96C950120009
:1016E000A6EC0BF086EC0BF0C6EC0AF097EC0BF0D6
:1016F000DCEC0AF012008B92600E63EC0BF0FF0E34
:1017000063EC0BF02C6E8B822C501200400EC76ED7
:10171000000EC66E010EC86E9496C69A1200000E98
:1017200070EC08F0949294948B828B941200300E9B
:10173000D36E040ED26E000E9B6E12003DC049F0B7
:101740003EC04AF0120068656C6C6F00D09E1200BB
:02175000120085
:020000040020DA
:08000000FFFFFFFFFFFFFFFF00
:020000040030CA
:0E000000FF281F3CFFBF85FF0FC00FE00F4021
:00000001FF
