:040000003EEF00F0DF
:100008004882FACF10F0FBCF11F0E1CF12F0E2CF27
:1000180013F0D9CF14F0DACF15F0F3CF16F0F4CFF0
:1000280017F0F2AC1AEF00F01CEF00F02CEF00F024
:100038009DA021EF00F023EF00F02CEF00F09EA030
:1000480028EF00F02AEF00F02CEF00F076EC0DF02E
:1000580017C0F4FF16C0F3FF15C0DAFF14C0D9FFAC
:1000680013C0E2FF12C0E1FF11C0FBFF10C0FAFF8E
:080078004892110018EF0CF092
:10100000000040010000000E0001D26FD251220DFD
:10101000F30EF324D96E000EF420DA6EDF50D8A45C
:1010200014EF08F016EF08F018EF08F021EF08F0C1
:10103000D22B070ED2651FEF08F021EF08F006EF64
:1010400008F0080ED219D8A428EF08F02AEF08F00B
:101050002CEF08F09FEF08F0D251220DD30EF324AD
:101060001E6E000EF4201F6ED251220DF40EF324DA
:10107000D96E000EF420DA6EDF50206E12EC0EF006
:10108000070E31EC0EF00001D16FD1BB4AEF08F032
:101090004CEF08F058EF08F0D1A951EF08F053EFEA
:1010A00008F055EF08F058EF08F000D040EF08F0D6
:1010B000700E196E070E09EC0BF00001D1A963EF59
:1010C00008F065EF08F069EF08F0E5EC0CF09FEF31
:1010D00008F0D251220DF30EF324D96E000EF42045
:1010E000DA6E010EDF6ED1AD78EF08F07AEF08F01E
:1010F0009FEF08F022EC0EF00001D06F600E1E6E24
:10110000000E1F6ED0C020F001EC0EF0600E186EC5
:10111000000E196E7EEC0BF00009D8A492EF08F0D7
:1011200094EF08F096EF08F09FEF08F0600E0001D2
:10113000A96F000EAA6FD0C0ABF0A0EC08F01200AF
:10114000A9C0D9FFAAC0DAFFDF500001CF6F1FEF9F
:1011500009F020EE04F0A951D926AA51DA22DF5075
:10116000CE6FAE0E186E000E196E000E1A6EA9C06C
:101170001BF0AAC01CF0050E1D6EAB51FB0F1E6EBE
:1011800043EC0CF0AE0E0001A56F000EA66FCE5121
:10119000B2EC0BF038EF09F020EE04F0A951D9269B
:1011A000AA51DA22DF502E6E2F0E186E000E196E25
:1011B000000E1A6EA9C01BF0AAC01CF0050E1D6E11
:1011C000050E1E6E43EC0CF0340E186E000E196EF8
:1011D000000E1A6EA9C01BF0AAC01CF00A0E1D6EEC
:1011E000050E1E6E43EC0CF0000120EE0FF0A9512D
:1011F000D926AA51DA22DF50396E38EF09F02A0ECB
:10120000186E000E196E000E1A6EA9C01BF0AAC04F
:101210001CF0040E1D6E030E1E6E43EC0CF000015C
:1012200020EE07F0A951D926AA51DA22DF502D6EFF
:1012300038EF09F0040E49EC0BF038EF09F0CF510C
:10124000AC6FAD6BAD51000AD8B429EF09F01AEFBD
:1012500009F0AC51030AD8B4CCEF08F0070AD8B4AF
:10126000FFEF08F0140AD8B4A9EF08F01AEF09F05C
:1012700012005FEC0EF03B0E196E000E1A6E050E9A
:101280001B6E100E56EC0DF03B0E196E000E1A6E12
:10129000050E1B6E0A0E56EC0DF07A0E196E000E3E
:1012A00009EC0BF0010E196E010E09EC0BF0010EAA
:1012B000196E020E09EC0BF0030E196E030E09EC09
:1012C0000BF0DF0E196E040E09EC0BF0730E196EA5
:1012D000050E09EC0BF00E0E196E060E09EC0BF064
:1012E000060E196E1D0E09EC0BF0010E196E1C0E88
:1012F00009EC0BF000D0000E296E3AC02DF0730EF1
:101300002E6E2F0E186E000E196E3B0E1A6E000E0A
:101310001B6E000E1D6E050E1C6E95EC0CF0340E4F
:10132000186E000E196E3B0E1A6E000E1B6E000E2C
:101330001D6E050E1C6E95EC0CF02A0E186E000E3C
:10134000196E410E1A6E000E1B6E000E1D6E030EFE
:101350001C6E95EC0CF00A0E396E000E236E2350B5
:10136000220DF30EF324D96E000EF420DA6E010E76
:10137000DF6E2350220DF40EF324D96E000EF420FC
:10138000DA6E000EDF6E232A070E2364CAEF09F01F
:10139000CCEF09F0AFEF09F01200196EC6BAD3EF27
:1013A00009F0D5EF09F024EF0AF01950040D010EF1
:1013B000F326000EF422010EF324F66E100EF42034
:1013C000F76EF86A000EF8220800F5CFC7FF195033
:1013D000040D010EF324F66E100EF420F76EF86A79
:1013E000000EF8220800F5CFC6FF000EC56E19509A
:1013F000040D020EF326000EF422010EF324F66E05
:10140000100EF420F76EF86A000EF8220800F5CFEF
:10141000C8FF1950040D030EF326000EF422010E2E
:10142000F324F66E100EF420F76EF86A000EF82220
:101430000800F5CF18F018461846184694501818AA
:10144000F70B1818946EC68A1200000E236E2350F4
:10145000220DF30EF324D96E000EF420DA6EDF5065
:10146000D8B435EF0AF037EF0AF039EF0AF042EF5F
:101470000AF0232A070E236440EF0AF042EF0AF035
:1014800027EF0AF0080E2318D8A449EF0AF04BEF13
:101490000AF04EEF0AF0000E74EF0AF02350220D0E
:1014A000F30EF324D96E000EF420DA6E000EDF6E18
:1014B0002350220DF40EF324D96E000EF420DA6EC0
:1014C000A2C0DFFF2350220DD30EF324186E000EAE
:1014D000F420196EA0C01AF0A1C01BF0A2C01CF02D
:1014E0001D6A95EC0CF0010E1200000E0F6E0F50ED
:1014F000220DF30EF324D96E000EF420DA6EDF50C5
:10150000D8B485EF0AF087EF0AF089EF0AF092EF7E
:101510000AF00F2A070E0F6490EF0AF092EF0AF01C
:1015200077EF0AF0080E0F18D8A499EF0AF09BEF96
:101530000AF09EEF0AF0000EC4EF0AF00F50220DE1
:10154000F30EF324D96E000EF420DA6E000EDF6E77
:101550000F50220DF40EF324D96E000EF420DA6E33
:101560000EC0DFFF0F50220DD30EF324016E000ECC
:10157000F420026E0CC003F00DC004F00EC005F0A4
:10158000066ABDEC0CF0010E1200055006100710A3
:101590000810D8B4CEEF0AF0D0EF0AF000EF0BF04D
:1015A000010E096EDAEF0AF0D890053606360736D6
:1015B0000836092A08AEDFEF0AF0E1EF0AF0D4EFAF
:1015C0000AF00550015C06500258075003580850B5
:1015D0000458D8A0EEEF0AF0F0EF0AF0F8EF0AF0A6
:1015E0000550015E0650025A0750035A0850045A2B
:1015F000D8900832073206320532092EE1EF0AF0A0
:1016000001C001F002C002F003C003F004C004F006
:1016100012001A6E8B92200E1A6011EF0BF013EF6E
:101620000BF01DEF0BF01A501F0B20093EEC0EF0D3
:1016300019503EEC0EF046EF0BF01A503EEC0EF057
:10164000E10E1A18D8B427EF0BF029EF0BF046EF94
:101650000BF0E20E1A18D8B430EF0BF032EF0BF0AB
:1016600046EF0BF0E30E1A18D8B439EF0BF03BEF4E
:101670000BF046EF0BF01A28D8B441EF0BF043EF14
:101680000BF046EF0BF019503EEC0EF000D08B82C1
:1016900012000001A36F000E0001A46F010E806F05
:1016A000800E186E000E196E010E1A6E410E1B6E22
:1016B000000E1C6E000E1D6E030E1E6E43EC0CF031
:1016C000030E0001A427A42B800EA425D96EDA6A8C
:1016D000000EDA22000EDF6EA42B800EA425D96E38
:1016E000DA6A000EDA22A3C0DFFF800EA06F000EC0
:1016F000A16FA429A26F25EC0AF01200000E1F6E44
:10170000000E1E6E1E5018241A6E1F5019201B6EDC
:10171000010E1A24D96E000E1B20DA6E410E1E2413
:10172000E16E000E1F20E26EDE50E618D8B49BEF8B
:101730000BF09DEF0BF0A0EF0BF0000EB1EF0BF0F4
:101740001E4A1F2A1FBEAEEF0BF01F5009E1030E09
:101750001E5CD8A0AEEF0BF0B0EF0BF082EF0BF0F9
:10176000010E1200246ECEEF0BF08992A5C0D9FFB6
:10177000A6C0DAFFDF50D8B4C0EF0BF0C2EF0BF019
:10178000E4EF0BF08982E4EF0BF0E5EC0BF0E4EF13
:101790000BF0040E49EC0BF0E4EF0BF024500001C9
:1017A000A76FA86BA851000AD8B4D9EF0BF0C9EF06
:1017B0000BF0A751130AD8B4B5EF0BF0060AD8B452
:1017C000C5EF0BF0C9EF0BF01200010E296E2EC011
:1017D00019F0050E09EC0BF02F0E196E000E1A6EA3
:1017E000050E1B6E100E56EC0DF02F0E196E000E2E
:1017F0001A6E050E1B6E0A0E56EC0DF03938F00B02
:101800000F09236E23C019F0040E09EC0BF0410EF2
:10181000186E000E196E2A0E1A6E000E1B6E000E48
:101820001D6E030E1C6E95EC0CF02DC03AF01200EC
:10183000DC0EF66E1C0EF76E000EF86E00EE3AF03F
:1018400010EE0AF00900F5CFEEFFE550E150FAE1A5
:1018500000EED3F011EE10F0EE6AE550E150FCE13D
:10186000E250FAE100EE60F0400EEE6AE806FDE1BB
:1018700000EE25F0150EEE6AE806FDE1489048926C
:101880000001EEEF0DF0000E236E62EF0CF023501E
:101890001B241F6E000E1C20206E1D501F24D96EAD
:1018A000000E2020DA6E23501824216E000E19201D
:1018B000226E1A502124E16E000E2220E26EDFCF4C
:1018C000E7FF232A1E50235CD8A069EF0CF06BEFD2
:1018D0000CF047EF0CF01200000E0C6E8BEF0CF0CA
:1018E0000C500424086E000E0520096E06500824D2
:1018F000D96E000E0920DA6E0C5001240A6E000E1B
:1019000002200B6E03500A24E16E000E0B20E26EE3
:10191000DFCFE7FF0C2A07500C5CD8A092EF0CF049
:1019200094EF0CF070EF0CF012001AC021F01BC005
:1019300022F018C01FF019C020F0AFEF0CF021C04A
:10194000D9FF22C0DAFFDF501E6E214A222A1FC0B3
:10195000D9FF20C0DAFF1EC0DFFF1F4A202A1C0665
:10196000D8A01D061C2806E11D28D8A4BAEF0CF04B
:10197000BCEF0CF09FEF0CF0120003C009F004C0A4
:101980000AF001C007F002C008F0D7EF0CF009C060
:10199000D9FF0AC0DAFFDF500B6E094A0A2A07C0D6
:1019A000D9FF08C0DAFF0BC0DFFF074A082A050687
:1019B000D8A00606052806E10628D8A4E2EF0CF018
:1019C000E4EF0CF0C7EF0CF012008B92700E196E62
:1019D000070E09EC0BF0040E1B6E3E0EE82EFED730
:1019E0001B2EFCD78B828B92E10E3EEC0EF0040E88
:1019F0001B6E3E0EE82EFED71B2EFCD78B828B92E1
:101A0000E20E3EEC0EF0040E1B6E3E0EE82EFED7EC
:101A10001B2EFCD78B8212001C6E8B921C503EEC4E
:101A20000EF0000E1D6E20EF0DF0FF0E3EEC0EF0DE
:101A300019C0D9FF1AC0DAFFDF6E194A1A2A1D2A07
:101A40001B501D5CD8A027EF0DF029EF0DF015EF0E
:101A50000DF019C0D9FF1AC0DAFF000EDF6E8B82BD
:101A60001200010E2526000E26222722282225C03C
:101A700001F026C002F027C003F028C004F03A505D
:101A8000056E066A076A086AC5EC0AF00150021082
:101A900003100410D8B44FEF0DF051EF0DF053EFD9
:101AA0000DF055EF0DF093EC0DF012001C6E8B92C3
:101AB0001C5020093EEC0EF0000E1D6E6BEF0DF079
:101AC00019C0D9FF1AC0DAFFDF503EEC0EF0194AF8
:101AD0001A2A00D01D2A1B501D5CD8A072EF0DF0F1
:101AE00074EF0DF060EF0DF08B8212009E9046C0F7
:101AF00001F047C002F0DAEC0DF044504510D8B4C4
:101B000084EF0DF086EF0DF092EF0DF002D892EF1A
:101B10000DF00500FA6E4450FD6E4550FE6EFF6AF2
:101B2000FA5012001200020E0001806F800E016E4A
:101B3000000E026E010E036E410E046E000E056E65
:101B4000000E066E030E076E6CEC0CF0800E0C6E31
:101B5000000E0D6E040E0E6E75EC0AF01200000EF3
:101B6000896E000E8A6E000E8B6EFD0E926E93686B
:101B7000D10E946EC40E0F013A6F3F0E396F2D0EC9
:101B8000386F000E616EF18E1200000ECC6E0B0EDF
:101B9000CF6EDC0ECE6ECECF46F0CFCF47F09E900C
:101BA0009D80F40E186E1C0E196E73EC0EF0210E53
:101BB000CD6E1200CDA4DFEF0DF0E1EF0DF0E9EFF7
:101BC0000DF0CD900250CF6E01C0CEFFCD80EDEF75
:101BD0000DF00250CF6E01C0CEFF12004BEC0EF0A4
:101BE000F28EF28C620E186E1A0E196E73EC0EF0F5
:101BF00039EC09F003EC08F000F0FAEF0DF03EEFDD
:101C000000F01EC019F01FC01AF020C01BF0610EBA
:101C10000CEC0DF0700E196E070E09EC0BF0E5ECF4
:101C20000CF012001EC019F01FC01AF020C01BF0EB
:101C3000A00E56EC0DF08B84530EE82EFED700F06C
:101C40008B9412008B92600E3EEC0EF0FF0E3EEC79
:101C50000EF0196E530EE82EFED700F08B8219504D
:101C60001200196E8B9219501F0B3EEC0EF0FF0EF6
:101C70003EEC0EF01A6E8B821A501200186E18C0CD
:101C8000C9FF9EA646EF0EF048EF0EF041EF0EF0B2
:101C90009E96C950120078EC0EF056EC0EF0AFECA8
:101CA0000DF067EC0EF0C5EC0DF01200400EC76EA3
:101CB000000EC66E010EC86E9496C69A1200000EF3
:101CC000CDEC09F0949294948B828B941200300E98
:101CD000D36E040ED26E000E9B6E12000168656C0E
:101CE0006C6F00FFFFFF18C044F019C045F01200F0
:061CF000D09E120012005C
:020000040020DA
:08000000FFFFFFFFFFFFFFFF00
:020000040030CA
:0E000000FF281F3CFFBF85FF0FC00FE00F4021
:00000001FF
