:040000003EEF00F0DF
:100008004782FACF10F0FBCF11F0E1CF12F0E2CF28
:1000180013F0D9CF14F0DACF15F0F3CF16F0F4CFF0
:1000280017F0F2AC1AEF00F01CEF00F02CEF00F024
:100038009DA021EF00F023EF00F02CEF00F09EA030
:1000480028EF00F02AEF00F02CEF00F0D5EC0DF0CF
:1000580017C0F4FF16C0F3FF15C0DAFF14C0D9FFAC
:1000680013C0E2FF12C0E1FF11C0FBFF10C0FAFF8E
:080078004792110077EF0CF034
:10100000000040010000000E0001DA6FDA51220DED
:10101000FB0EF324D96E000EF420DA6EDF50D8A454
:1010200014EF08F016EF08F018EF08F021EF08F0C1
:10103000DA2B070EDA651FEF08F021EF08F006EF54
:1010400008F0080EDA19D8A428EF08F02AEF08F003
:101050002CEF08F09FEF08F0DA51220DDB0EF3249D
:101060001E6E000EF4201F6EDA51220DFC0EF324CA
:10107000D96E000EF420DA6EDF50206E71EC0EF0A7
:10108000070E9FEC0EF00001D96FD9BB4AEF08F0B4
:101090004CEF08F058EF08F0D9A951EF08F053EFE2
:1010A00008F055EF08F058EF08F000D040EF08F0D6
:1010B000700E196E070E9BEC0BF00001D9A963EFBF
:1010C00008F065EF08F069EF08F044EC0DF09FEFD1
:1010D00008F0DA51220DFB0EF324D96E000EF42035
:1010E000DA6E010EDF6ED9AD78EF08F07AEF08F016
:1010F0009FEF08F081EC0EF00001D86F600E1E6EBD
:10110000000E1F6ED8C020F060EC0EF0600E186E5E
:10111000000E196E10EC0CF00009D8A492EF08F044
:1011200094EF08F096EF08F09FEF08F0600E0001D2
:10113000B16F000EB26FD8C0B3F0A0EC08F012008F
:10114000B1C0D9FFB2C0DAFFDF500001D76F1FEF87
:1011500009F020EE04F0B151D926B251DA22DF5065
:10116000D66FB60E186E000E196E000E1A6EB1C054
:101170001BF0B2C01CF0050E1D6EB351FB0F1E6EAE
:10118000A2EC0CF0B60E2C6E000E2D6E0001D651A6
:10119000C7EC0AF038EF09F020EE04F0B151D9267F
:1011A000B251DA22DF50A56FA60E186E000E196E2E
:1011B000000E1A6EB1C01BF0B2C01CF0050E1D6E01
:1011C000050E1E6EA2EC0CF0AB0E186E000E196E22
:1011D000000E1A6EB1C01BF0B2C01CF00A0E1D6EDC
:1011E000050E1E6EA2EC0CF0000120EE0FF0B151C6
:1011F000D926B251DA22DF50B06F38EF09F0A10ED4
:10120000186E000E196E000E1A6EB1C01BF0B2C03F
:101210001CF0040E1D6E030E1E6EA2EC0CF00001FD
:1012200020EE07F0B151D926B251DA22DF50A46F77
:1012300038EF09F0040E44EC0CF038EF09F0D75108
:10124000B46FB56BB551000AD8B429EF09F01AEFA5
:1012500009F0B451030AD8B4CCEF08F0070AD8B4A7
:10126000FFEF08F0140AD8B4A9EF08F01AEF09F05C
:101270001200CDEC0EF0340E196E000E1A6E050E33
:101280001B6E100EB5EC0DF0340E196E000E1A6EBA
:10129000050E1B6E0A0EB5EC0DF07A0E196E000EDF
:1012A0009BEC0BF0010E196E010E9BEC0BF0010E86
:1012B000196E020E9BEC0BF0030E196E030E9BECE5
:1012C0000BF0DF0E196E040E9BEC0BF0730E196E13
:1012D000050E9BEC0BF00E0E196E060E9BEC0BF040
:1012E000060E196E1D0E9BEC0BF0010E196E1C0EF6
:1012F0009BEC0BF000D0000E0001A06F33C0A4F0F7
:10130000730EA56FA60E186E000E196E340E1A6EAF
:10131000000E1B6E000E1D6E050E1C6EF4EC0CF024
:10132000AB0E186E000E196E340E1A6E000E1B6E88
:10133000000E1D6E050E1C6EF4EC0CF0A10E186E66
:10134000000E196E3A0E1A6E000E1B6E000E1D6E08
:10135000030E1C6EF4EC0CF00A0E0001B06F000ED0
:10136000236E2350220DFB0EF324D96E000EF420C1
:10137000DA6E010EDF6E2350220DFC0EF324D96EBF
:10138000000EF420DA6E000EDF6E232A070E2364AF
:10139000CCEF09F0CEEF09F0B1EF09F01200196EB1
:1013A000C6BAD5EF09F0D7EF09F026EF0AF01950C9
:1013B000040D010EF326000EF422010EF324F66E46
:1013C000100EF420F76EF86A000EF8220800F5CF30
:1013D000C7FF1950040D010EF324F66E100EF42011
:1013E000F76EF86A000EF8220800F5CFC6FF000E6F
:1013F000C56E1950040D020EF326000EF422010EE4
:10140000F324F66E100EF420F76EF86A000EF82240
:101410000800F5CFC8FF1950040D030EF326000E87
:10142000F422010EF324F66E100EF420F76EF86A23
:10143000000EF8220800F5CF18F018461846184696
:1014400094501818F70B1818946EC68A1200000EE4
:10145000266E2650220DFB0EF324D96E000EF420CA
:10146000DA6EDF50D8B437EF0AF039EF0AF03BEF0D
:101470000AF044EF0AF0262A070E266442EF0AF02B
:1014800044EF0AF029EF0AF0080E2618D8A44BEF13
:101490000AF04DEF0AF050EF0AF0000E76EF0AF076
:1014A0002650220DFB0EF324D96E000EF420DA6EC6
:1014B000000EDF6E2650220DFC0EF324D96E000EB6
:1014C000F420DA6E25C0DFFF2650220DDB0EF32458
:1014D000186E000EF420196E23C01AF024C01BF001
:1014E00025C01CF01D6AF4EC0CF0010E1200000E79
:1014F0000F6E0F50220DFB0EF324D96E000EF42058
:10150000DA6EDF50D8B487EF0AF089EF0AF08BEF7C
:101510000AF094EF0AF00F2A070E0F6492EF0AF018
:1015200094EF0AF079EF0AF0080E0F18D8A49BEF99
:101530000AF09DEF0AF0A0EF0AF0000EC6EF0AF0E5
:101540000F50220DFB0EF324D96E000EF420DA6E3C
:10155000000EDF6E0F50220DFC0EF324D96E000E2C
:10156000F420DA6E0EC0DFFF0F50220DDB0EF324E5
:10157000016E000EF420026E0CC003F00DC004F0EA
:101580000EC005F0066A1CEC0DF0010E1200306E64
:10159000000E326E000E316EF8EF0AF089922CC008
:1015A000D9FF2DC0DAFFDF50D8B4D9EF0AF0DBEF56
:1015B0000AF011EF0BF0898211EF0BF0DBEC0BF06E
:1015C00011EF0BF0310E186E000E196E90EC0EF04C
:1015D000310E276E000E286E020E296E020E12ECDE
:1015E0000BF011EF0BF0040E44EC0CF011EF0BF0CC
:1015F00030502E6E2F6A2F50000AD8B402EF0BF035
:10160000F3EF0AF02E50020AD8B4E2EF0AF0110A02
:10161000D8B4CEEF0AF0060AD8B4DEEF0AF0F3EF42
:101620000AF012002A6E000E2B6E010E0001806F70
:10163000800E186E000E196E010E1A6E3A0E1B6E99
:10164000000E1C6E000E1D6E030E1E6EA2EC0CF042
:10165000030E2B262B2A800E2B24D96EDA6A000E5D
:10166000DA222AC0DFFF2B2A800E2B24D96EDA6AF9
:10167000000EDA22000EDF6E800E186E000E196E5C
:101680002B281A6E27C01BF028C01CF0000E1D6E00
:1016900029C01EF0A2EC0CF029502B26800E236EE0
:1016A000000E246E2B28256E27EC0AF01200055040
:1016B000061007100810D8B460EF0BF062EF0BF0C3
:1016C00092EF0BF0010E096E6CEF0BF0D89005361F
:1016D000063607360836092A08AE71EF0BF073EFAD
:1016E0000BF066EF0BF00550015C065002580750F6
:1016F000035808500458D8A080EF0BF082EF0BF08D
:101700008AEF0BF00550015E0650025A0750035A4B
:101710000850045AD8900832073206320532092E92
:1017200073EF0BF001C001F002C002F003C003F040
:1017300004C004F012001A6E8B92200E1A60A3EF00
:101740000BF0A5EF0BF0AFEF0BF01A501F0B2009B9
:10175000ACEC0EF01950ACEC0EF0D8EF0BF01A50C8
:10176000ACEC0EF0E10E1A18D8B4B9EF0BF0BBEFE9
:101770000BF0D8EF0BF0E20E1A18D8B4C2EF0BF052
:10178000C4EF0BF0D8EF0BF0E30E1A18D8B4CBEF80
:101790000BF0CDEF0BF0D8EF0BF01A28D8B4D3EF45
:1017A0000BF0D5EF0BF0D8EF0BF01950ACEC0EF0BE
:1017B00000D08B821200010E0001A06FA5C019F0AD
:1017C000050E9BEC0BF0A60E196E000E1A6E050EA0
:1017D0001B6E100EB5EC0DF0A60E196E000E1A6EF3
:1017E000050E1B6E0A0EB5EC0DF00001B039F00BC2
:1017F0000F09236E23C019F0040E9BEC0BF03A0E78
:10180000186E000E196EA10E1A6E000E1B6E000EE1
:101810001D6E030E1C6EF4EC0CF0A4C033F012002D
:10182000000E1F6E000E1E6E1E5018241A6E1F50E2
:1018300019201B6E010E1A24D96E000E1B20DA6EC1
:101840003A0E1E24E16E000E1F20E26EDE50E618F6
:10185000D8B42DEF0CF02FEF0CF032EF0CF0000E9F
:1018600043EF0CF01E4A1F2A1FBE40EF0CF01F5022
:1018700009E1030E1E5CD8A040EF0CF042EF0CF023
:1018800014EF0CF0010E1200276E000E286E010EF0
:101890000001806F800E186E000E196E010E1A6E18
:1018A0003A0E1B6E000E1C6E000E1D6E030E1E6E99
:1018B000A2EC0CF0030E2826282A800E2824D96ECC
:1018C000DA6A000EDA22000EDF6E282A800E282443
:1018D000D96EDA6A000EDA2227C0DFFF800E236E8F
:1018E000000E246E2828256E27EC0AF01200B80E90
:1018F000F66E1D0EF76E000EF86E00EE33F010EE71
:101900000AF00900F5CFEEFFE550E150FAE100EEF4
:10191000DBF011EE10F0EE6AE550E150FCE1E25030
:10192000FAE100EE60F0510EEE6AE806FDE1426A6F
:10193000416A406A3F6A3E6A3D6A479047920001A9
:101940004DEF0EF0000E236EC1EF0CF023501B2460
:101950001F6E000E1C20206E1D501F24D96E000E1D
:101960002020DA6E23501824216E000E1920226EDA
:101970001A502124E16E000E2220E26EDFCFE7FF35
:10198000232A1E50235CD8A0C8EF0CF0CAEF0CF03D
:10199000A6EF0CF01200000E0C6EEAEF0CF00C50EB
:1019A0000424086E000E0520096E06500824D96E26
:1019B000000E0920DA6E0C5001240A6E000E02207F
:1019C0000B6E03500A24E16E000E0B20E26EDFCF97
:1019D000E7FF0C2A07500C5CD8A0F1EF0CF0F3EFF6
:1019E0000CF0CFEF0CF012001AC021F01BC022F057
:1019F00018C01FF019C020F00EEF0DF021C0D9FF64
:101A000022C0DAFFDF501E6E214A222A1FC0D9FFF2
:101A100020C0DAFF1EC0DFFF1F4A202A1C06D8A004
:101A20001D061C2806E11D28D8A419EF0DF01BEF98
:101A30000DF0FEEF0CF0120003C009F004C00AF034
:101A400001C007F002C008F036EF0DF009C0D9FF61
:101A50000AC0DAFFDF500B6E094A0A2A07C0D9FF15
:101A600008C0DAFF0BC0DFFF074A082A0506D8A026
:101A70000606052806E10628D8A441EF0DF043EF3D
:101A80000DF026EF0DF012008B92700E196E070EFE
:101A90009BEC0BF0040E1B6E3E0EE82EFED71B2EA9
:101AA000FCD78B828B92E10EACEC0EF0040E1B6E19
:101AB0003E0EE82EFED71B2EFCD78B828B92E20EB9
:101AC000ACEC0EF0040E1B6E3E0EE82EFED71B2E65
:101AD000FCD78B8212001C6E8B921C50ACEC0EF06B
:101AE000000E1D6E7FEF0DF0FF0EACEC0EF019C076
:101AF000D9FF1AC0DAFFDF6E194A1A2A1D2A1B50B5
:101B00001D5CD8A086EF0DF088EF0DF074EF0DF09E
:101B100019C0D9FF1AC0DAFF000EDF6E8B821200E7
:101B2000010E3D26000E3E223F2240223DC001F024
:101B30003EC002F03FC003F040C004F03350056ED9
:101B4000066A076A086A57EC0BF00150021003108E
:101B50000410D8B4AEEF0DF0B0EF0DF0B2EF0DF011
:101B6000B4EF0DF0F2EC0DF012001C6E8B921C50D5
:101B70002009ACEC0EF0000E1D6ECAEF0DF019C07E
:101B8000D9FF1AC0DAFFDF50ACEC0EF0194A1A2A5E
:101B900000D01D2A1B501D5CD8A0D1EF0DF0D3EF53
:101BA0000DF0BFEF0DF08B8212009E9045C001F04A
:101BB00046C002F039EC0EF043504410D8B4E3EFC5
:101BC0000DF0E5EF0DF0F1EF0DF002D8F1EF0DF0B3
:101BD0000500FA6E4350FD6E4450FE6EFF6AFA50E7
:101BE00012001200020E0001806F800E016E000EC6
:101BF000026E010E036E3A0E046E000E056E000EAC
:101C0000066E030E076ECBEC0CF0800E0C6E000E11
:101C10000D6E040E0E6E77EC0AF01200000E896E47
:101C2000000E8A6E000E8B6EFD0E926E9368D10EC2
:101C3000946EC40E0F013A6F3F0E396F2D0E386F40
:101C4000000E616EF18E1200000ECC6E0B0ECF6E88
:101C5000DC0ECE6ECECF45F0CFCF46F09E909D806D
:101C6000D00E186E1D0E196EE1EC0EF0210ECD6E29
:101C70001200CDA43EEF0EF040EF0EF048EF0EF054
:101C8000CD900250CF6E01C0CEFFCD804CEF0EF054
:101C90000250CF6E01C0CEFF1200B9EC0EF0F28EF2
:101CA000F28C200E186E1B0E196EE1EC0EF039EC62
:101CB00009F003EC08F000F059EF0EF03EEF00F0F1
:101CC0001EC019F01FC01AF020C01BF0610E6BEC93
:101CD0000DF0700E196E070E9BEC0BF044EC0DF03E
:101CE00012001EC019F01FC01AF020C01BF0A00E79
:101CF000B5EC0DF08B84530EE82EFED700F08B94DC
:101D000012008B92600EACEC0EF0FF0EACEC0EF0FD
:101D1000196E530EE82EFED700F08B821950120078
:101D200018C0D9FF19C0DAFF230EDF6E20EE01F0D4
:101D30001850D9261950DA22280EDF6E1200196EBB
:101D40008B9219501F0BACEC0EF0FF0EACEC0EF0AA
:101D50001A6E8B821A501200186E18C0C9FF9EA608
:101D6000B4EF0EF0B6EF0EF0AFEF0EF09E96C95046
:101D70001200E6EC0EF0C4EC0EF00EEC0EF0D5EC1A
:101D80000EF024EC0EF01200400EC76E000EC66E70
:101D9000010EC86E9496C69A1200000ECFEC09F0A0
:101DA000949294948B828B941200300ED36E040E16
:101DB000D26E000E9B6E12000168656C6C6F00FFA6
:101DC000FFFF18C043F019C044F01200D09E12006B
:021DD0001200FF
:020000040020DA
:08000000FFFFFFFFFFFFFFFF00
:020000040030CA
:0E000000FF281F3CFFBF85FF0FC00FE00F4021
:00000001FF
